:1000000080150020F918000061450000CD1800009F
:10001000CD180000CD180000CD1800000000000031
:100020000000000000000000000000009D13000020
:10003000CD1800000000000049130000CD1800009A
:100040004D1400004D1400004D1400004D1400002C
:100050004D1400004D1400004D1400004D1400001C
:100060004D1400004D1400004D1400004D1400000C
:100070004D1400004D1400004D1400004D140000FC
:100080004D1400004D1400004D1400004D140000EC
:100090004D1400004D1400004D1400004D140000DC
:1000A0004D1400004D1400004D1400004D140000CC
:1000B0004D1400004D1400004D1400004D140000BC
:1000C0004D1400004D1400004D1400004D140000AC
:0C00D0004D1400004D1400004D14000001
:1000DC0053B94AB9002908BF00281CBF4FF0FF31A3
:1000EC004FF0FF3000F00CB8ADF1080C6DE904CE08
:1000FC0000F008F8DDF804E0DDE9022304B07047F5
:10010C00704700BF2DE9F04786468C460846089E8E
:10011C00154674461946002B40F0C2808542B2FA4F
:10012C0082F245D94AB1C2F1200300FA02FC2EFA40
:10013C0003F3954043EA0C0C94404FEA154EA8B2D9
:10014C00BCFBFEF8230C0EFB18CC08FB00F943EAB1
:10015C000C43994528D9EB1808F1FF3704D299457F
:10016C0002D9A8F102072B44A3EB0903A4B2B3FBF9
:10017C00FEFC0EFB1C330CFB00F044EA0344A042D3
:10018C0014D92C190CF1FF3304D2A04202D9ACF1D2
:10019C0002032C44241A43EA07401EB1D440002326
:1001AC0034607360BDE8F0874746DDE76346F1E7EE
:1001BC0092BB431B01214FEA154EAFB2B3FBFEFCC1
:1001CC00200C0EFB1C330CFB07F840EA034398454C
:1001DC0062D9EB180CF1FF3004D2984502D9ACF17E
:1001EC0002002B44A3EB0803A4B2B3FBFEFC0EFBF2
:1001FC001C330CFB07F744EA0344A7424ED92C19D5
:10020C000CF1FF3304D2A74202D9ACF102032C4407
:10021C00E41B43EA0040C0E7C2F1200320FA03F1DB
:10022C00954090402EFA03F303434FEA154EAFB2BC
:10023C00B1FBFEFC0EFB1C10190C0CFB07F841EA81
:10024C000041884504FA02F422D969180CF1FF30F8
:10025C0004D2884502D9ACF102002944A1EB080173
:10026C009BB2B1FBFEFC0EFB1C110CFB07F743EA27
:10027C0001439F420ED9EB180CF1FF3104D29F427F
:10028C0002D9ACF102012B44DB1B41EA004192E79D
:10029C006046E3E76146F7E76046A3E76346B7E7E6
:1002AC00834206D916B9002108467BE7C6E900E06F
:1002BC00F9E7B3FA83F78FB9834201D3724508D8B3
:1002CC00BEEB020460EB030301209C461EB9002127
:1002DC0068E73846FAE7C6E9004CF8E7C7F1200CA6
:1002EC00BB4022FA0CF41C432EFA0CF120FA0CF34E
:1002FC00B84001434FEA14490EFA07F5B3FBF9F87D
:10030C001FFA84FE09FB18300B0C08FB0EFA43EAAB
:10031C0000439A4502FA07F240D9E31808F1FF307E
:10032C0004D29A4502D9A8F102002344A3EB0A0394
:10033C0089B2B3FBF9F809FB183308FB0EFE41EA4E
:10034C0003418E452CD9611808F1FF3304D28E4538
:10035C0002D9A8F10203214443EA0040A0FB029811
:10036C00A1EB0E014145CE46434602D306D14D4585
:10037C0004D2B9EB020E68EB04030138002EA6D0B0
:10038C00B5EB0E0261EB030101FA0CFC22FA07F348
:10039C004CEA0303F940C6E9003198E74046C5E74B
:1003AC004346D9E738B50B480B4D0A22492104F0D6
:1003BC00BCF8012401210B464B430131A142FBDD6A
:1003CC00224649212846013404F0AFF80B2CF1D118
:1003DC0038BD00BFA04F0000D44F00007FB5324B9A
:1003EC006A4603F10806154618685968144603C492
:1003FC000833B3422246F7D118681B792371206069
:10040C0049212A4804F091F803222948492104F093
:10041C008CF82848442104F088F82748572104F028
:10042C0084F82648452104F080F8254A25484921BE
:10043C0004F07BF80D222946032000F02BFD224C02
:10044C00204604F0FBFA60B320484FF4D01103F0BF
:10045C00FDFE002825DB4FF480311D4803F0F6FE2D
:10046C002369A5681B68AE6913F4005F14BF4FF0D5
:10047C0000734FF080630D214FF0A0722046B047FF
:10048C001449154B4B604FF400538B60EB6913B15F
:10049C0001222046984700214FF0967003F0F6FC9D
:1004AC00F9E704B070BD00BF604E0000F44F0000CF
:1004BC001650000027500000495000006E500000FC
:1004CC00915000009E500000804C0000784E0000BF
:1004DC00804E0000D8010020B1030000014B1B68C6
:1004EC00184700BF00000020014B1860704700BF88
:1004FC000000002007B50B4600210246009103487E
:10050C0000F014F903B05DF804FB00BFE90400002F
:10051C002DE9F047058B04462807904611D4022993
:10052C0005F0070540F0CD80204603F0C7FE78B1FA
:10053C000138218B042811D8DFE800F0C3106D8539
:10054C00950001290CBF45F0100545F020052583C9
:10055C0088F31188BFF36F8FBDE8F08701F0070AAD
:10056C00AA4500F0A6800027B9463E46A368002B9A
:10057C0000F0BD8041F00801218388F31188BFF39E
:10058C006F8FA168002900F0BB800D68002900F076
:10059C00B780D1F80480334652462046C047002D20
:1005AC0076D02B6829461D46F0E701F007035A1F49
:1005BC00012A1BD8002221F00701062B276889B2DB
:1005CC00C4E9002209D13B4603E0628B013262830D
:1005DC001B68002BF9D141F002012183204603F066
:1005EC006DFE00287BD041F0200177E0042B0AD16E
:1005FC0021F0070189B22183204603F05FFE10B180
:10060C0041F020012183218B01F0070AAA4550D02B
:10061C000027B946AAE7236921F0070141F006013A
:10062C00062DD3F8009021832DD1B9F1000F40D0C5
:10063C0041F00801218388F31188BFF36F8F3A4989
:10064C002046C84729E021F00701236941F0040145
:10065C0089B2042DD3F804902183E6D000273E46BE
:10066C004FF0040A82E721F00701236941F00501EC
:10067C0089B2052DD3F808902183D6D000273E46A9
:10068C004FF0050A72E700273E464FF0060A6DE769
:10069C002B4687E7B9F1000FD1D14FF02003EFF3D0
:1006AC00118883F31288BFF36F8F238B23F0080319
:1006BC002383258BEA062ED525F01003238305F022
:1006CC0007056669218B002EBFF66FAF00232768E4
:1006DC00C4E9003321F0070141F001012183218B92
:1006EC0001F0070AAA454FF000097FF43FAF002F35
:1006FC009BD041F00801218388F31188BFF36F8FE1
:10070C00002FC7D03D68394633465246204603F089
:10071C0001FE2F46F4E7AB067FF51AAF25F0200358
:10072C00238305F00705FFE64D4300002DE9F04F4C
:10073C00814695B08B4617461C460025387808B97B
:10074C00284658E37B1C2528039306D05946C847F6
:10075C000028C0F250830135FBE1182200210EA8BD
:10076C0003F024FF7B78252B7DD00023781C984642
:10077C009E469C461E46014610F8012B2B2A00F083
:10078C00A18000F29880202A00F09F80232A00F09C
:10079C009F802BB19DF8403043F040038DF84030E2
:1007AC00B8F1000F05D09DF8403043F020038DF8D0
:1007BC004030BEF1000F05D09DF8403043F01003DF
:1007CC008DF84030BCF1000F05D09DF8403043F05F
:1007DC0008038DF840302EB19DF8403043F00403EF
:1007EC008DF840309DF8403003F04400442803D18C
:1007FC006FF386138DF840309DF840302A2A43F071
:10080C0080038DF840307FD19DF8412042F00102E9
:10081C004B1C8DF841201A782E2A9DF841200CBFD4
:10082C000121002161F341028DF8412078D15A78E1
:10083C002A2A6ED0013300224FF00A0C194611F807
:10084C00010BA0F13006092E40F295809DF8401066
:10085C001292C1F3400040EAD2700A4660F34102A2
:10086C008DF840205CE0BA1C03928DF843309DF863
:10087C004130DA0740F12E8154F8048BB8F1000FA7
:10088C0007DA9DF8402042F004028DF84020C8F1B0
:10089C0000085E0740F1278154F804ABBAF1000F51
:1008AC0080F226819DF841306FF341038DF8413081
:1008BC004FF0FF3A1CE12D2A0DD0302A7FF469AF9E
:1008CC00012358E74FF0010C55E74FF0010E52E7AA
:1008DC004FF001084FE701264DE70EFB0262303A5C
:1008EC000346184610F8016BA6F1300CBCF1090F49
:1008FC00F3D999428FD09DF840101192D20F62F328
:10090C0041018DF8401086E70B4600224FF00A0E8D
:10091C00E7E79DF8412042F004028DF841200233B4
:10092C001A786C2A47D02BD8682A31D06A2A4BD037
:10093C004C2A51D01A4612F8013B0392782B9DF8A1
:10094C0041208DF8433000F2BE806D2B51D8692BBD
:10095C0000F2B980572B67D8412B03D0453B022BB3
:10096C0000F2B1809DF84230042262F302038DF84C
:10097C004230012373E00CFB0202303A0B465DE778
:10098C00742A25D07A2AD5D19DF8412006210CE075
:10099C005A78682A9DF8412006D1012161F3C602DC
:1009AC008DF841200233C5E7022161F3C6028DF8B0
:1009BC0041200133BEE75A786C2A9DF8412001D1C1
:1009CC000421EBE70321F0E79DF841200521ECE73A
:1009DC009DF841200721E8E7BDF8402022F4F042C1
:1009EC0022F0020242F4804242F00202ADF84020B2
:1009FC00DFE76E3BD9B201238B4040F282410B42C0
:100A0C0037D113F0240F51D1D8075CD59DF8423063
:100A1C00032161F302038DF8423002F07803A3F155
:100A2C0040014B424B411AE0A3F15801C9B20120DD
:100A3C0000FA01F111F4624F94D140F601063142F3
:100A4C001DD111F4043F3ED09DF8423060F30203F7
:100A5C0002F07802402A8DF8423034D000239DF801
:100A6C004020C2F340010B4363F341028DF8402058
:100A7C00FDE69DF84230022161F30203E8E79DF8A0
:100A8C004210022002F0780260F30201402A8DF835
:100A9C00421002BF9DF8401041F001018DF840104A
:100AAC00632BDBD1131E18BF0123D8E79DF842300E
:100ABC00032161F3020312F0780F8DF8423014BF5A
:100ACC0001230023CBE79DF8403043F001038DF860
:100ADC004030C3E79DF94020002AB4BFDDF84480C4
:100AEC004FF0FF38D5E698077FF5E2AEDDF848A069
:100AFC009DF841100023CDE911339DF8423003F0ED
:100B0C000703012BC1F3C30133D1CB1E042B04D833
:100B1C00DFE803F0214646212100236801294FEA32
:100B2C00E372CDE90E321CD19DF93830DA17CDE9DC
:100B3C000E3204349DF8403013F0030650D0039B62
:100B4C003A465946484603F0D8FC0028C0F2538177
:100B5C000544039FF2E554F8043BDA17CDE90E3255
:100B6C00E8E70229E5D11AB243F3C033CDE90E23ED
:100B7C00DFE7022B24D1CB1E042B04D8DFE803F0D3
:100B8C00181010181800012954F8043B4FF00002FB
:100B9C0014D00229CDE90E32CCD19BB20E93C9E709
:100BAC00073424F00704F4E80223CDE90E23C1E74F
:100BBC0054F8043B0E9300230F93BBE7DBB2CDE755
:100BCC00042B08D1073424F00704D4E9002308349B
:100BDC00CDE90E23AEE7032BACD154F8043BDDE793
:100BEC009DF843007828B4D862281CD825283FF4F7
:100BFC00ADAD5828ADD10DF136030093DDE90E01F2
:100C0C0008AB10AA03F033FCBAF1000F074680F2D0
:100C1C009A80002F9DD00DF13603D81B002E00F0CA
:100C2C00C1800130BEE06338152892D801A252F879
:100C3C0020F000BF150D0000270D00005F0B000019
:100C4C005F0B00005F0B00005F0B0000270D000026
:100C5C005F0B00005F0B00005F0B00005F0B0000E0
:100C6C00B50D00004D0D0000730D00005F0B000072
:100C7C005F0B0000990C00005F0B00004D0D000095
:100C8C005F0B00005F0B00004D0D0000BAF1000F70
:100C9C000E9F35DB5146384603F074FC07EB000A17
:100CAC00002F3FF456AF00269DF8423013F010028F
:100CBC00059200F0938002305B06119A48BF129B9C
:100CCC000492104448BFC018B8F1000F40F3A08044
:100CDC009DF84020A8EB0008C2F380035007069350
:100CEC0000F19680510640F189803EB1594630465C
:100CFC00C84700287FDB069B01351E4630227EE06C
:100D0C00384603F038FCC9E70E9B8DF820300026DE
:100D1C0008AF0DF1210A0120C6E719075CBFC3F328
:100D2C0000135E01DDE90E2348BF2B26002BBFF616
:100D3C0062AF524263EB4303CDE90E232D265AE7F3
:100D4C00002658E700269DF840200DF13603DB1BEA
:100D5C006FF386129A458DF840207FF65AAFAAEBB6
:100D6C000303119355E70E9890B30DF136030093DE
:100D7C0010AA08AB002103F07AFBBDF8423003F057
:100D8C00EF0343F4F04343F01003BAF1000F0746AE
:100D9C00ADF84230D6DA00283FF4DBAE0DF1360365
:100DAC00181A00269A467FE70E9B07293FF6D1AE0C
:100DBC00DFE801F00C04060C08080C0C1D70C8E6EA
:100DCC001D80C6E6EA17C3E90052C2E61D60C0E604
:100DDC002E4F064607F1050A052065E71A0748BF9E
:100DEC00013069E70793104606925946C847002818
:100DFC00DDE9062304DA15B0BDE8F08F2022434666
:100E0C001946002903F1FF33ECDC45446D1A984672
:100E1C002EB159463046C8470028ECDB01359DF809
:100E2C004230DA0601D41B0705D559463020C84795
:100E3C000028E0DB0135059B33B19DF84300594692
:100E4C00C8470028D7DB0135049E2E4405E05946DF
:100E5C003020C8470028CEDB0135731B002BF6DC95
:100E6C0053463A465946484603F047FB0028C2DB36
:100E7C000544A844A8EB0503002B7FF76AAE59463E
:100E8C002020C8470028B6DB0135F3E7C35000002B
:100E9C0001F06EBD2DE9F84FDFF8989080460F46B3
:100EAC0016461446BD192D1B0CB9BDE8F88F08F178
:100EBC00FF33032B98BF19F803101F48DFF87CA0F1
:100ECC0088BF3F2103F0E3F94FF0000B5C4528D9B4
:100EDC0015F80B10504603F0DAF90BF1010BBBF1CE
:100EEC00080FF3D11648DFF85CB003F0D0F94FF0DF
:100EFC00000A544519D915F80A10A1F120025F2AED
:100F0C0028BF2E21584603F0C2F90AF1010ABAF1A2
:100F1C00080FEED10C4803F0BAF9072CC5D9083CE0
:100F2C00C0E70A4803F0B3F9D7E7094803F0AFF973
:100F3C00EBE700BFDD500000C9500000CE500000B0
:100F4C00D8500000DA50000011570000D4500000B7
:100F5C00D65000002DE9F84305464FF02003EFF37F
:100F6C00118683F31288BFF36F8F0E4B0E4F1C68E4
:100F7C00DFF838804FF00C092CB986F31188BFF3D9
:100F8C006F8FBDE8F883D4E90123002D18BF1346F9
:100F9C002BB198F8102009FB02F2B85C9847246832
:100FAC00EAE700BFFC010020F00100204403002010
:100FBC0070B5194B1C7CBFF35B8F04F01F0301222F
:100FCC009A40164B610903EB8103D04353E8001F91
:100FDC0001EA000543E80056002EF7D1BFF35B8F02
:100FEC000A4213D00E4B0F4D8BB10C236343EA18FE
:100FFC00E85C517803F0F2FA0020FFF7ABFF0C230A
:10100C005C432A1900232B51C2E9013370BD83F3D1
:10101C001188BFF36F8FEFE7440300200402002018
:10102C00E9450000F00100202DE9F041354B074661
:10103C001D7C4FF02003EFF3118883F31288BFF36C
:10104C006F8F0C24304B314E6C431A19195D0029EB
:10105C004CD007CA06EB040C8CE8070000221A558A
:10106C0088F31188BFF36F8F0C236B43F218F05C7D
:10107C00002839D07B1C10D0D2F808C0244C254A4B
:10108C004FF400400021ECFB004100232046FFF709
:10109C001FF80121381A01F009FC02F03DFE012075
:1010AC00FFF758FFBFF35B8F1B4B6A0903EB8203FF
:1010BC0005F01F0101228A4053E8000F104343E85A
:1010CC0000010029F8D1BFF35B8F144B3BB10C230B
:1010DC0003FB05F03318305C597803F073FAFFF713
:1010EC0067FF02F02DFE0120BDE8F0810146284685
:1010FC0000F016F80028B3D007C8344484E8070081
:10110C00AEE700BF44030020E4010020F001002002
:10111C003F420F0040420F0004020020D145000066
:10112C002DE9F04F85B00E4603A900F043F81E4B95
:10113C00039DD3F800A0DFF87480431E1BB203EBB1
:10114C004303044605EB83054FF400474FF0000BB7
:10115C0024B9A146484605B0BDE8F08F6868144A2A
:10116C00C4465946E0FB07C100236046FEF7B0FFBA
:10117C000190A8680E4AC4465946E0FB07C10023FB
:10118C006046FEF7A5FFBAF1FF3FA94601D08245A4
:10119C0005D9731CDED0019B1844B042DAD9013C4E
:1011AC00A4B20C3DD4E700BF040000203F420F0066
:1011BC0040420F0008B9024B0B600020704700BF83
:1011CC00884E0000014910220A60704710ED00E0C3
:1011DC0072B6404080F31188BFF36F8FBFF34F8F0F
:1011EC0030BF62B6BFF36F8F704700BF72B6494015
:1011FC0081F31188BFF34F8F20BF80F3118862B643
:10120C00704700BF37B505460C46C9B18B680093D3
:10121C00D1E900230E48452103F087F96369009357
:10122C00D4E903230B48452103F07FF9E2690A480E
:10123C00452103F07AF9A2690848452103F075F9B4
:10124C002146284603B0BDE8304002F075B900BF16
:10125C00E4500000185100004C5100006051000097
:10126C0040B2002807DB044A4109012300F01F00AB
:10127C00834042F82130704700E100E0054B420901
:10128C0000F01F0053F82220012303FA00F0104055
:10129C00704700BF00E100E040B20028A8BF00F199
:1012AC00604001F10101B8BF064B4FEA4111ACBFE0
:1012BC0000F5614000F00F00C9B2B4BF195480F8BA
:1012CC000013704714ED00E030BFFFF7FDBF00BF07
:1012DC000B4A08B50B4B22F07F029A60BFF34F8F7D
:1012EC00BFF36F8FD3F8882022F47002C3F88820E4
:1012FC0002F0ACF902F04AFE00F0ECFA02F0EAF966
:10130C000000000000ED00E0094A0A4993680968F2
:10131C009967094958674B6843F080534B60002329
:10132C0083F31188BFF36F8F9368986F704700BF7A
:10133C0044030020704F000000ED00E012498A6861
:10134C004FF030001044EFF3098C80E8F01F2020A0
:10135C0080F31288BFF36F8F0C4F4FF000668A69D1
:10136C008A603E60506F0023536780F3118804B588
:10137C00104600F04BFBBDE8044002F1300090E851
:10138C00F01F8CF3098870474403002004ED00E043
:10139C001EF0040F0CBFEFF30880EFF30980816996
:1013AC0011F8021C0229FFD001B503F0CBF801BDE6
:1013BC0042F8203C009B42F81C3C0A49019B42F835
:1013CC00183C029B42F8143C21F001014FF0807351
:1013DC0042F8043C42F8081C0023203A026543679B
:1013EC00704700BFB5420000094A0346906870B1CF
:1013FC0013F1160F406E05D0A0F140029A4205D8A9
:10140C00834203D2814228BF0020704700207047DE
:10141C004403002008B5094B0D461446986000F0B3
:10142C00F5FA204685F30988002163B681F311880B
:10143C00BFF36F8F0022002302F036FF440300201D
:10144C0001B572B60B4A506900281EBF00215161CC
:10145C0003F00BFB62B6EFF30580A0F110004FEA2E
:10146C00C0000549014409C99847BDE8014003493A
:10147C000847000044030020B04C00008D1400000D
:10148C00044B99689869884203D003494FF0805205
:10149C000A6070474403002004ED00E02DE9F84396
:1014AC00364D8046894636484521174603F03DF8AF
:1014BC00AB6ADE0626D53348452103F036F81124F5
:1014CC00AB6A1D0704D53048452103F02EF81224D1
:1014DC002A4DAB6A980717D545212C4803F025F8FF
:1014EC006E6BAB6A190645D529483246452103F087
:1014FC001CF8B9F1000F03D0AB6A23F08003AB6288
:10150C00132403E01024DBE76FF015061B4DAB6AC8
:10151C00DA0704D51F48452103F007F81424AB6AF9
:10152C009B0604D51C48452102F0FFFF1524134BE4
:10153C009A6AD50602D49A6A90070AD55B6819058F
:10154C0007D541463046FFF74FFF10B180F30988AD
:10155C0002240A4B9A6A920642BF5A6A22F400523B
:10156C005A629A6A42F0FF029A6200233B7020464C
:10157C00BDE8F8836FF01506C2E700BF00ED00E090
:10158C0093510000AE510000E6510000FE510000E6
:10159C001B520000365200005A52000010B5204C6D
:1015AC002048452102F0C1FFA36A990136D51E4897
:1015BC00452102F0BAFF1E20A36ADA0104D51B48AC
:1015CC00452102F0B2FF1F20154CA36A1B0304D562
:1015DC001748452102F0A9FF2120A36A590304D51D
:1015EC001448452102F0A1FF22200D4CA36A9A0356
:1015FC0004D51148452102F098FF2320A36ADB0390
:10160C0004D50E48452102F090FF2420044A936A29
:10161C006FEA03436FEA1343936210BD1D20CBE7BF
:10162C0000ED00E08E520000AB520000C3520000EF
:10163C00E2520000055300002F5300004E530000EF
:10164C0070B5284C06460D462748452102F06DFF23
:10165C00A36AD9043BD52548452102F066FF172023
:10166C00A36A1A0504D52248452102F05EFF182012
:10167C001C4CA36A9B0511D51E48452102F055FF51
:10168C00A26BA36A180408D51B48452102F04DFF34
:10169C001EB1A36A23F40043A3621920114CA36A60
:1016AC00590504D51548452102F03FFF1A20A36ABD
:1016BC00DA050ED51248452102F037FF1B20094AE6
:1016CC00936A43F47F43936200232B7070BD162002
:1016DC00C6E7A36A9B04F2D50A48452102F025FF10
:1016EC001C20ECE700ED00E07E5300009953000055
:1016FC00E6510000AF530000CD530000E75300004B
:10170C00075400005A5200002DE9F0415D4B5F6810
:10171C008AB00546C7F30804002686F31188BFF388
:10172C006F8F02F07F43B3F17F4F07D102F00C03B0
:10173C00082B14D15448452102F0F7FE00263546FB
:10174C004FF00008E31E8DF80780092B00F287800C
:10175C00DFE803F00A7A7E76858585858582100719
:10176C004CBF0D460126EBE74848464C452102F09C
:10177C00DCFE8DF80780E36A9A0705D544484521BD
:10178C0002F0D3FE002433E0E36A002B02DA414876
:10179C004521F5E7E36A5B00F4D53F48452102F0AB
:1017AC00C4FE6369AA6943F480736361BFF34F8F0E
:1017BC00BFF36F8F636932F8022C23F4807363617B
:1017CC00BFF34F8FBFF36F8F4DF602739A4209D060
:1017DC00A36ADBB233B30DF1070201212846FFF7F0
:1017EC005DFE2FE02A682D48452102F09EFE2C68F4
:1017FC009DF807309BB92022294602A802F0CBFEA7
:10180C00099B002E38D0C3F3080222B96FEA532388
:10181C006FEA4323099302A92046FFF7F3FC0AB0B1
:10182C00BDE8F081A36A13F47F4F05D00DF10701D9
:10183C000120FFF705FF05E0A36AB3F5803FA1D3B4
:10184C00FFF7ACFE0446D3E70DF107020021C5E714
:10185C000DF107010020ECE71148452190E71149F3
:10186C00114A124817F4F87F08BF0A46A4F1100376
:10187C00452102F05AFE85E723F4FF7323F00103A0
:10188C00C8E700BF00ED00E0525400008254000095
:10189C009E540000C4540000D7540000FB540000B8
:1018AC001C5500002454000039540000455500001C
:1018BC00024A536943F010035361704700ED00E096
:1018CC00EFF30880EFF3098101B57246FFF71CFFB7
:1018DC0001BD00BF044800232021C2180133272B6F
:1018EC0082F80013F9D1704700E100E0002080F38A
:1018FC001488BFF36F8FFFF7CBFA00200D490860F7
:10190C00BFF34F8F0C4880F3088800F02BF8202091
:10191C0080F3118809484FF40461401880F309885A
:10192C00EFF314800221084380F31488BFF36F8F08
:10193C00FFF7CEFC94ED00E080150020C0070020DE
:10194C000749D1F890200023C2F30722184693428E
:10195C0000DB7047C1F89830C1F8A0000133F6E7FE
:10196C0000ED00E008B572B6002383F31388FFF78F
:10197C00E7FF144B4FF0FF32C3F88020C3F88420EC
:10198C00C3F88820C3F88C20C3F89020C3F89420A7
:10199C00C3F89820C3F89C20C3F88021C3F8842195
:1019AC00C3F88821C3F88C21C3F89021C3F8942183
:1019BC00C3F89821C3F89C2162B6BFF34F8FBFF3D5
:1019CC006F8F08BD00E100E0084B9B6883420BD190
:1019DC00EFF3058343B1064B5A6842F080525A60CC
:1019EC005A6A22F400425A6202F070BA4403002090
:1019FC0000ED00E0024B034A0348012100F07CB8E3
:101A0C000000012000000020884E0000426E054BB3
:101A1C00403A1A60044A4021C3E9011218460121D8
:101A2C0000F074B80802002000000B15F8B5244E25
:101A3C0000258D420FDA4468002C3ED09BB104F196
:101A4C00FF3C14EA0C0F08D01E482A46452102F030
:101A5C006CFD6FF015021046F8BD1F2CF4D9076809
:101A6C001CEA070FF0D1202C0768D0F808C05FFAE9
:101A7C0082FE10D9B4F1004F0FD8013CB4FA84F4B3
:101A8C00C4F11F046400BEF1070F4CEA040C06D924
:101A9C000D484521DBE70824F5E73E24F3E727F062
:101AAC001F04144344F01004C6F89820C6F89C4058
:101ABC004CF00104C6F8A040013201350C30B8E7F7
:101ACC0000ED00E06155000089550000044B052233
:101ADC00C3F89420BFF34F8FBFF36F8F704700BFD5
:101AEC0000ED00E0BFF35F8F024B0022C3F894209F
:101AFC00704700BF00ED00E010B5034C01232278C5
:101B0C00FFF794FF207010BD7803002008B5094A38
:101B1C0000231278FFF78AFF10F1160F03D0064B43
:101B2C000022072800DD08BDC3F89800C3F8A020E8
:101B3C000130F6E77803002000ED00E01449086856
:101B4C00082810B521D8FFF7CDFF124C49680022A8
:101B5C00904201F10C0105D10F4B1870FFF7B6FF45
:101B6C00002010BDC4F8982051F80C3C23F01F0342
:101B7C00134343F01003C4F89C3051F8043C43F079
:101B8C000103C4F8A0300132E2E74FF0FF30E8E780
:101B9C00944E000000ED00E078030020014B18602B
:101BAC00704700BF080000204FF02003EFF31182B4
:101BBC0083F31288BFF36F8F06490123C1F84035B8
:101BCC004FF08041C1F8783582F31188BFF36F8FE5
:101BDC000020704700E001404FF08043C0B2C3F8D2
:101BEC001C05BFF34F8F0549054BCA6802F4E06230
:101BFC001343CB60BFF34F8F00BFFDE700ED00E058
:101C0C000400FA0520B1034B800143F0010318478F
:101C1C00704700BF704E0000084B70B5C31A0D46DC
:101C2C0007499B10044659430648402202F0F8FC31
:101C3C002B4601462046BDE870401847280200207C
:101C4C00B76DDBB6684C000073B50C4C0C4A4023E6
:101C5C00041B00930D460B460A49A410614306462B
:101C6C00094802F009FD011E05DA30462B4602B088
:101C7C00BDE87040184702B070BD00BF28020020BC
:101C8C00EF460000B76DDBB6684C000010B54FF0A6
:101C9C002003EFF3118483F31288BFF36F8F074A8D
:101CAC00136823F00201DB07116002D4012002F05B
:101CBC00ADFE84F31188BFF36F8F10BD7802002046
:101CCC00002270B5012104461046FFF7E5FA0F48D3
:101CDC0001F02EF80E4B984215D102F08AFE2669BF
:101CEC000C49304602F03AFB00280BDB0125356429
:101CFC002469084904F11C0002F030FB002801DBC8
:101D0C00E564002070BD6FF00400FBE7591D000076
:101D1C000000AD0BB44E000070B501460C23094811
:101D2C004B43C418D4E90E56403300221844A26326
:101D3C0002F063FC2DB132462B460348BDE87040DF
:101D4C00184770BD28020020684C000010B1012813
:101D5C0004D07047034B1B6C5B0701D1FFF7DCBF52
:101D6C00704700BF2802002008B54FF02003EFF3A6
:101D7C00118183F31288BFF36F8F124A136843F0FB
:101D8C0002001060DA0708D481F31188BFF36F8F5B
:101D9C000120BDE8084000F0DBBF4FF08043D3F8D2
:101DAC000C24D3F80C34D307EED5074802F025FCED
:101DBC0081F31188BFF36F8F0020BDE80840FFF757
:101DCC00ABBF00BF78020020680200201FB50022C4
:101DDC000123CDE90223094ACDF800D06B46CDF89A
:101DEC0004D002F077FC002805DB4FF4804200237E
:101DFC00684601F0A7FD05B05DF804FB074700003D
:101E0C0010B5074C23782BB94FF4A57002F000FFE6
:101E1C0001232370BDE81040002000F099BF00BFE3
:101E2C00790300202DE9F0413849BFF35B8F074659
:101E3C00012251E8003F41E800200028F9D1BFF30E
:101E4C005B8F33B9324933484B60CB608A6002F008
:101E5C0098FA7B1E012B2BD8012F07D14FF0804312
:101E6C00D3F81C3403F00303012B21D002F0F5FD51
:101E7C000546F8B9284B1B78E3B14FF0804302229A
:101E8C00C3F808230646DFF894804FF08044D4F85A
:101E9C001834D4F81824D20316D503F00303012BFD
:101EAC0001D0012F10D15DB386F31188BFF36F8F72
:101EBC00BDE8F0814FF02003EFF3118683F3128815
:101ECC00BFF36F8F0125DEE7ADB13046FFF78EF91A
:101EDC00D4F81835002BDAD1D4F80421002AD6D046
:101EEC00C4F80431D4F804310123C4F81835C8F807
:101EFC008031A360CBE70021212001F0C7FFE7E789
:101F0C004FF080430222C3F80423D1E724020020BF
:101F1C0014020020440200208C07002000E100E0A5
:101F2C0008B5074802F08AFD38B10648FFF736FEBF
:101F3C000448FEF7D9FA002008BD6FF01200FBE749
:101F4C00984C0000551F00000A2838B5074D044670
:101F5C0004D1AB680D215B6828469847AB680348F1
:101F6C005B68E1B29847204638BD00BF984C000032
:101F7C0030B54068057B01F01F04B2F5001F85B039
:101F8C0044EA451405D1204601F0A6F9002005B01D
:101F9C0030BD0025B2F5800FCDE9025514D1B3F157
:101FAC00007F0CBF042305238DF80830002319464D
:101FBC0002AA204600F0C6FF1D4B984235D10121E4
:101FCC00204601F045F9E1E7B3F1C06F22D0B3F13F
:101FDC00007F14BF012302238DF808308368CB40A7
:101FEC00D907E3D4B2F1A07FE0D104F01F0303F5CD
:101FFC00E0734FF0A04252F82330DB07D6D40DF13A
:10200C0007052946204601F0CFF80A4B984203D029
:10201C000395CBE70323DFE7284601F013F9044BC4
:10202C009842F5D06FF00B00B1E76FF01500AEE7FA
:10203C000000AD0B0400AD0B10B501F0F3F8044635
:10204C0068B901F0C7F8084B98420AD107482146F5
:10205C0001F0A4F8224605210620FFF71DF9002007
:10206C0010BD6FF00400FBE70000AD0B7D200000FD
:10207C00430970B507D10B4B596821B101250C6888
:10208C00094E854001B970BD8A682A4002D04B6860
:10209C00304698471CB1236821461C46F2E723467C
:1020AC00FAE700BF7C020020804C00002DE9FF41C4
:1020BC0047683B7B01F01F0545EA43150E46284651
:1020CC000DF10301144601F06FF814F4403F804603
:1020DC000BD1284601F028F93D4B984503D19DF8CA
:1020EC00030001F0A9F800200CE00023194602AA15
:1020FC002846CDE9023300F025FF354B984204D039
:10210C006FF0150004B0BDE8F081804503D19DF857
:10211C00030001F091F8A3034BD540F206332340A2
:10212C00B3F5837F19D00CD8062B17D004D8ABB1DC
:10213C00022BE5D1042311E0B3F5807FE0D101231C
:10214C000CE040F20222934227D0B3F5407F26D018
:10215C00B3F5007FD4D1022300E007238DF80430BF
:10216C0084F48033C3F30043E0068DF8053054BF8C
:10217C00C4F34013032321038DF8063011D57A687C
:10218C000123B340C2F80835002201A9284600F00B
:10219C0087FF0F4B9842A6D0B2E70523DEE7032357
:1021AC00DCE7620341BF01237A68B340C2F80C3507
:1021BC00EAE7E3064FF0000354BFC4F340140324D2
:1021CC001A4601A928468DF8044000F0BBFEE0E752
:1021DC000000AD0B70B54B79012B20D18B79032B03
:1021EC001DD1CD790DB1012D19D10A7912B1022A67
:1021FC0015D10E220B684468B3F5164F266864D0CF
:10220C002BD8B3F5165F63D014D8B3F5966F61D0A5
:10221C0008D8B3F5967F60D0B3F5167F60D06FF019
:10222C00850051E0B3F5166F5DD0B3F5965FF6D12E
:10223C00374B3CE0B3F5E14F58D007D8B3F5615FAD
:10224C0056D0B3F5964FEAD1324B30E047F6122414
:10225C00A342E4D14FF4000329E0B3F5613F49D028
:10226C0013D8B3F5963F48D009D84DF6C024A342F5
:10227C0045D0B3F5614FD2D14FF46B0317E0B3F5F2
:10228C00E13FCCD14FF0EB7311E0B3F5612F39D0B6
:10229C0008D8214CA34238D0B3F5E12FBFD14FF071
:1022AC00E86304E01D4CA342B9D14FF0805304699C
:1022BC00C6F8243543681B682A43C3F86C2503C948
:1022CC00231D83E80300002070BD4FF41D03EEE7CF
:1022DC00134BECE74FF49E23E9E74FF4A033E6E70A
:1022EC004FF41C33E3E74FF41D23E0E70D4BDEE71F
:1022FC000D4BDCE74FF06C73D9E70C4BD7E74FF481
:10230C006503D4E74FF07063D1E74FF08063CEE7FD
:10231C0000B0130000A04E0090D0030040420F000C
:10232C000050270000C0750000F03A0000903A0100
:10233C002DE9F7438046002201210220FEF7ACFF75
:10234C000220FEF78DFFD8F80470D8F810603C68B6
:10235C000021C4F80015C6F80080D7F80C9001AA2B
:10236C00484602F022FA051E1EDB019BD9F800201C
:10237C001979186802F02CFA051E15DB311D404640
:10238C00FFF728FF054678B97B68990724D506F135
:10239C00180001F095F8244B984209D023484521A8
:1023AC0002F0C3F86FF00405284603B0BDE8F083D3
:1023BC00337EDB0003F1804303F5F83304F10C02A8
:1023CC0004F59071C3F81015C3F81425327E01235F
:1023DC009340174AC2F804350823C4F800353B7AF9
:1023EC0053B9C4F81031D4F810317369C4F83435CA
:1023FC000123C4F8383523607B689A075CBF4FF41F
:10240C008073C4F804337B68DB0644BF4FF480034D
:10241C00C4F804333369C4F844350023C4F8483590
:10242C000123A360E360BFE70000AD0BFE55000085
:10243C0000F00140F8B5044607690D4602F00DFBAB
:10244C00B0B92E4B1B789BB16426606802F06AFA17
:10245C0000BB012002F0CBFA013EF6D10021212075
:10246C0001F014FDF0E786F31188BFF36F8FF5E7E9
:10247C004FF02003EFF3118683F31288BFF36F8FB5
:10248C006068314602F04EFA90B986F31188BFF3BA
:10249C006F8FEDE74FF02003EFF3118683F3128873
:1024AC00BFF36F8F6068314602F03CFA0028DAD037
:1024BC003B691D70626838691368C3F844050120D4
:1024CC00C3F848050020C3F82001D3F82051C3F805
:1024DC0058015268D3F85801D20608D562681268C0
:1024EC000820C2F800054FF48002C3F8042301222F
:1024FC009A6081F31188BFF36F8FF8BD8C070020B1
:10250C0070B5012383400E4ABFF35B8FDC4352E866
:10251C00001F01EA040542E80056002EF7D1BFF374
:10252C005B8F4FF4803282400648C0F80823BFF31B
:10253C005F8FBFF36F8F0B4214BF0120002070BD63
:10254C008C0200200010014070B40E49D1E9003417
:10255C00D01AC31844F1000422F07F46C1E90034BC
:10256C00A6F50013B3F5400F09D2074B1B681A0AE6
:10257C001B069C19054B42F10005C3E9004570BCD4
:10258C0001F0DABDA800002090020020B00000206D
:10259C0011B3BFF35B8F0123104A834052E800CF85
:1025AC004CEA030C42E800C10029F7D1BFF35B8F62
:1025BC000B4A4FF480338340C2F80433094BBFF30A
:1025CC005B8F1B68BFF35B8FC340DB0742BF064BBF
:1025DC004FF40032C3F80021704700BF8C0200207A
:1025EC00001001408802002000E100E00D4B18684B
:1025FC00010A0006BFF35F8F0B4BD3F80435181894
:10260C0041F10001B3F5801F0AD2084BD3E9002336
:10261C00904271EB030303D210F1807041F1000181
:10262C00704700BF9002002000100140B000002055
:10263C002DE9F74F16461F460446FFF761FF009041
:10264C00FFF7D4FFB04271EB070351D23A4B301A6B
:10265C0067EB0101984271F100016AD2374B03EB31
:10266C000413D3E902239F4208BF96424ED034494B
:10267C004FF4803904F1500509FA04F9AD00C1F8A2
:10268C0048932046ADB202F097F926F07F4B05F146
:10269C00804504F5A8732B4A019305F58835DC4673
:1026AC004FF0030A019B2CF07F4041F82300C1F846
:1026BC004493D1F804856FF00200A0EB080060444D
:1026CC0020F07F40904221D9286860B1D1F8048570
:1026DC00A8EB0B0020F07F40B0F5000F16D9204678
:1026EC0002F06AF9174A0AEB080C0AF1010AD9E759
:1026FC000123154ABFF35B8FA34052E8000F184328
:10270C0042E800010029F8D1BFF35B8F0B490C980C
:10271C00230101EB0412C2E90267C8500D9B536000
:10272C00002520460099FFF733FF284603B0BDE88B
:10273C00F08F6FF01505F4E7010080009800002081
:10274C0000100140FDFF7F008802002073B51B4C78
:10275C001B4BC4F80833C4F848331A4B00254FF010
:10276C00FF304FF0FF31C4F80855C3E902014FF4B4
:10277C008033C4F80433144B02264FF40032012189
:10278C00C4F804631120C3F880212A46FEF784FDA7
:10279C001120FEF765FD0D4A0123A3602360136031
:1027AC000B4B0C4A0093019500232846FFF740FF82
:1027BC003046FFF737FB284602B070BD00100140D1
:1027CC0003000F009800002000E100E08C020020C4
:1027DC0055250000FFFF7F002DE9F7432F4CD4F85F
:1027EC00043399070BD5D4F8043143B12C4A002398
:1027FC00C4F80431D4F80431136801331360D4F8ED
:10280C000433DA032AD5BFF35B8F264B53E8002F32
:10281C0022F0010143E800100028F7D1BFF35B8FD1
:10282C00D30702D4D4F84031C3B10025C4F84051C9
:10283C00D4F84031FFF7DAFE4FF02003EFF31182AA
:10284C0083F31288BFF36F8F174BD3E90267B04243
:10285C00B94106D282F31188BFF36F8F03B0BDE884
:10286C00F0834FF0FF384FF0FF39C3E90289D3E909
:10287C0000101D604FF48033C4F84833C4F8405145
:10288C00D4F8403182F31188BFF36F8F0029E5D063
:10289C00009032463B4628468847DFE7001001404F
:1028AC00900200208802002098000020431C13B5E1
:1028BC0022D0012822DD124A124B9042D4BF04468A
:1028CC001C46FFF793FE104B0E49D3E90023801AE8
:1028DC00B0F5000F28BF002404448C4228BF0C46DE
:1028EC00A2180A4900914FF00000019043F1000337
:1028FC00FFF79EFE02B010BD024CE2E70124E0E7B8
:10290C00FEFF7F00FFFF7F00A80000205525000080
:10291C0008B5FFF76BFE024B1B68C01A08BD00BF61
:10292C00A8000020034808B5452101F0FEFD002059
:10293C00FFF752F9405600004FF0704393F8E02F28
:10294C00062A09D1D3F8E83FC3F30313033B042B46
:10295C0002D8024AD05C70470020704771560000C4
:10296C00024AD2F80034002BFBD0704700E0014043
:10297C0010B502F02DF840B14FF080538E4AD3F8C9
:10298C002433C3F30423C2F84035FFF7D5FF10B14D
:10299C008A4B8B4A5A6702F01BF848B14FF08053B0
:1029AC004FF08042D3F84432C3F34233C2F83C3583
:1029BC00FFF7C2FF30B1834AD2F8FC3023F08073AA
:1029CC00C2F8FC3002F004F840B14FF08043002212
:1029DC00C3F80C21C3F81021C3F83825FFF7ACFF5E
:1029EC0020B14FF080430322C3F8A025FFF7A4FFCA
:1029FC0060B1754B0522C3F810260122C3F8882656
:102A0C000022C3F818263F22C3F814264FF0805337
:102A1C00D3F83021511C09BF4FF07043D3F8343137
:102A2C0093F8E02FD3F8E83F08BFC3F30313062A4B
:102A3C004DD1033B042B03D8644AD35C002B46D006
:102A4C004FF08052624BD2F80414C3F82015D2F820
:102A5C000814C3F82415D2F80C14C3F82815D2F8AE
:102A6C001014C3F82C15D2F81414C3F83015D2F87E
:102A7C001814C3F83415D2F81C14C3F84015D2F846
:102A8C002014C3F84415D2F82414C3F84815D2F80E
:102A9C002814C3F84C15D2F82C14C3F85015D2F8DE
:102AAC003014C3F85415D2F83414C3F86015D2F8A6
:102ABC003814C3F86415D2F83C14C3F86815D2F86E
:102ACC004014C3F86C15D2F84424C3F8702501F0F7
:102ADC007FFF48B14FF080534FF08042D3F858320B
:102AEC0003F04F03C2F8E43E01F072FF48B14FF01F
:102AFC008043D3F80024D20744BF6FF00102C3F81F
:102B0C0000244FF08053D3F83021062A26D1D3F875
:102B1C003431033B042B02D82E4AD35C63B12E4ACA
:102B2C00D2F83C3743F48063C2F83C374FF0805303
:102B3C00D3F83031062B11D14FF08053D3F8343108
:102B4C00033B042B02D8254AD35C3BB14FF0102336
:102B5C00D3F808224FF08043C3F858254FF01023C8
:102B6C00D3F80022002A03DBD3F80432002B22DA3C
:102B7C001B4901234FF01020C1F804351524FFF731
:102B8C00EFFEC0F80042FFF7EBFEC0F80442FFF77F
:102B9C00E7FE0023C1F80435FFF7E2FEBFF34F8FC9
:102BAC000849104BCA6802F4E0621343CB60BFF3D0
:102BBC004F8F00BFFDE710BD0030014000C0074043
:102BCC000DF0ADBA00ED00E0005000406C56000076
:102BDC0000C0004067560000001000406256000024
:102BEC0000E001400400FA0570B501250268BFF34E
:102BFC005B8FB2FA82F3C3F11F03DBB205FA03F465
:102C0C0022EA040450E8006F964204D140E8004CDC
:102C1C00BCF1000FF6D1BFF35B8FE7D101480B700D
:102C2C0070BD00BF0000AD0B10B50368CB40DB07D7
:102C3C0014D401238B400268BFF35B8F43EA02017B
:102C4C0050E8004F944204D140E8001CBCF1000F46
:102C5C00F6D1BFF35B8FEED1014810BD0148FCE704
:102C6C000000AD0B0400AD0BF7B5044618B10128FC
:102C7C0022D003B0F0BD4FF080430222C3F80823EA
:102C8C00C3F80401D3F804210122DA6007460123BA
:102C9C008DF8073042F210754FF08046CCB1012C04
:102CAC00E7D1C7B3D6F80C3403F001033B70D6F868
:102CBC000C34DA0321D516E04FF080430022C3F820
:102CCC000803C3F80021D3F8002158600DF1070761
:102CDC00DDE7B7B1D6F8183403F003033B60D6F840
:102CEC001834D803C5D59DF80700012803D101F08D
:102CFC007EFE013DD2D1012CBBD10C4B00225A716E
:102D0C00B7E7D6F81834D903B3D5012001F06FFE1C
:102D1C00013DF6D1ADE7D6F80C34DB03EDD501203F
:102D2C0001F065FE013DF6D1E7E700BF94020020FB
:102D3C00044B1A7922B9012218609A800248704714
:102D4C0002487047940200200000AD0B0C00AD0B44
:102D5C0038B510B1012843D038BD4FF08042D2F8BD
:102D6C001834D2F81814C8030BD4D2F81434D90779
:102D7C000FD5D2F81C349B0708D40223C2F80433B5
:102D8C00EAE703F00303012B04D013B10020FFF793
:102D9C006BFF00234FF08042C2F818350023C2F8B5
:102DAC000431D2F804310223C2F80433124AD2F8A7
:102DBC00FC0040F08073C2F8FC30104B1C6844F0EF
:102DCC00010119605D685968491BB1F50A5FFAD3B6
:102DDC001C604FF08043C2F8FC0001229A60BBE7F4
:102DEC004FF080430022C3F80021D3F80021C3F830
:102DFC0004031860B0E700BF00ED00E0001000E035
:102E0C0010B54FF08043D3F800216AB10022C3F80B
:102E1C000021D3F800210122C3F80823114B587963
:102E2C0010B95A711B6898474FF08043D3F80421AE
:102E3C0072B10022C3F80421D3F80421D3F818246A
:102E4C00D3F81814920704D10122C3F818259A60FC
:102E5C0010BD0222C3F80823024BBDE810401B68CA
:102E6C000120184794020020034B083033F810005F
:102E7C00C0F34010704700BF2800002070B500F16F
:102E8C0008030C4C34F81330DA0505460E4607D50A
:102E9C00C3F3432304EBC30254F83330526898470E
:102EAC00A3682BB1E26831462846BDE8704018474C
:102EBC0070BD00BF2800002010B4124A083032F850
:102ECC001030D9051BD5C3F3432123F4F85322F852
:102EDC00103002F10E04002034F8023F13F4807F0E
:102EEC0003D0C3F34323994209D001302028F3D1F6
:102EFC00002342F83130044810BCFFF795BE10BCDB
:102F0C00704700BF280000207C00002038B5024626
:102F1C00FFF7AAFF094C02F1080540B134F815304F
:102F2C0007495B0B03F5A273002041F82300104600
:102F3C00FFF7C2FF002324F8153038BD280000200D
:102F4C00006000402DE9F34104461D4609B34F4F84
:102F5C0000F1080837F81860B30706D5FFF784FFAF
:102F6C0018B14B4802B0BDE8F08104F01F039B0080
:102F7C0003F1A0430978D3F8000726F0020620F0ED
:102F8C000F0046F0010640EA810127F81860C3F8EB
:102F9C0000179AB13D4B1778506804F1080633F8C6
:102FAC00161011F0020F0DD00028DAD133F81620CC
:102FBC0022F01C0242EA870223F81620002D3BD196
:102FCC003448CFE721F02001C904C90C23F81610AE
:102FDC000028EBD0032FC4D8526892F800C02FB948
:102FEC002D4A0CF5A27C42F82C70DFE74FEA8C02DC
:102FFC0002F1804202F5C04241EA4C31D2F8100590
:10300C0020F00300C2F81005D2F8100520F4473068
:10301C0020F44070C2F810052002D2F810E500F43C
:10302C00F85040EA074040EA0E0041F0200123F836
:10303C001610C2F81005B9E7D5E900672046FFF76E
:10304C003BFF002EBCD0114DD5E90023964201D197
:10305C009F4219D011480DF10701FFF7C5FD0D4B2B
:10306C0098427FF47FAF9DF8072045F8326005EB5E
:10307C00C20308345F6035F8143043EA422343F44A
:10308C00807325F814309BE70022EEE7280000201F
:10309C000400AD0B0000AD0B006000407C00002074
:1030AC00F8B5044689B33A4E00F1080736F81750C4
:1030BC00AB0704D4FFF7D8FE08B13648F8BD15F0BD
:1030CC001C0F4B7824D104F01F0000F5E07E4FF06C
:1030DC00A04C5B005CF82EC091F802E009782CF44F
:1030EC00E16C43EA8E032CF0070C43EA0C0343EA31
:1030FC00012300F5E0704FF0A04143F0010345F0CF
:10310C00030541F8203026F8175022B92248D5E79C
:10311C00012BD8D1D1E71E4E04F1080736F8170061
:10312C008307CAD592F800C06146890020F02000C0
:10313C0001F18041C00401F5C041C00C26F8170014
:10314C000023C1F810355578002DDFD0D1F810359B
:10315C00927823F4981323F4F853C1F81035D1F86E
:10316C0010E5230203F4F8532D0443EA0E0305F48F
:10317C00403512052B4302F4801240EA4C301343C5
:10318C0040F0200026F81700C1F81035BEE700BF4C
:10319C00280000200400AD0B0000AD0B014BC3E96F
:1031AC00020170472800002008B50246FFF75CFEBC
:1031BC0038B1054B0548083233F812305B0B0B70F5
:1031CC0008BD0348FCE700BF280000200000AD0B41
:1031DC000400AD0B38B50F4C94F85850BDB94022D3
:1031EC00294604F1100001F0E1F90620FEF738F849
:1031FC00094B0A48C3F87C51D3F87C214FF00042AC
:10320C00C3F80423012384F85830636538BD04489F
:10321C00FCE700BF28000020006000400000AD0B60
:10322C000500AD0B034B93F85800003818BF012074
:10323C00704700BF2800002001460148FFF7F4BC8E
:10324C007800002001460148FFF7CEBC7800002032
:10325C0010B50246FFF708FE02F108041C4B33F8C8
:10326C001430E0B113F0020419D15B0B9A0002F197
:10327C00804000F5C24002F1804202F5C042046079
:10328C000068D2F8100540F00100C2F8100529B111
:10329C00012202FA03F30F4AC2F8043310BDC3F340
:1032AC008203042B10D0052B10D04FF0A043D3F881
:1032BC00101502F01F03D94001F001010231BDE8E5
:1032CC001040104601F0A4BB0321F8E70221F6E7F9
:1032DC00280000200060004008B50246FFF7C4FD3E
:1032EC00C0B102F108010E4B33F81130990711D41B
:1032FC005B0B01229A409B000A4903F1804303F5C2
:10330C00C043C1F80823D3F8102522F00302C3F8F8
:10331C00102508BDBDE808400021104601F078BB1F
:10332C00280000200060004010B50D4B00F1080291
:10333C00044633F81230DB070FD5FFF7CDFF2046DC
:10334C0004F01F04FFF7E2FD04F5E0744FF0A04316
:10335C00022243F82420034810BD0348FCE700BFB9
:10336C00280000200000AD0B0400AD0B2DE9F74F39
:10337C004F4B50485049002501222C461E6836B14F
:10338C00D0F8046316421EBF1C601E68154304333C
:10339C008B424FEA4202F1D1464BD3F87C31BBB1A0
:1033AC004FF0A046D6F820350193C6F8203501AF72
:1033BC004FF00108019C8CB93E4BC3F87C41D3F80B
:1033CC007C31D6F820350193C6F82035002BEED190
:1033DC000124002D53D103B0BDE8F08F94FAA4F46E
:1033EC00B4FA84F4354A04F10803E00832F81310F7
:1033FC003B5C04F0070208FA02F223EA02033B5496
:10340C00A30003F1A049C1F3820AD9F80027CB0627
:10341C00D346C2F3014218D5594620465FFA82FAC8
:10342C00FFF72CFDD9F80037C3F301439A4507D1B8
:10343C000021204601F0ECFA5146204601F0E8FA52
:10344C0008FA04F4C6F82045B4E7022A0CD103218B
:10345C00204601F0DDFA0AF00503012BF0D15946A4
:10346C002046FFF70BFDEBE70221204601F0D0FAD6
:10347C00BAF1030FF3D0032AE2D18A45EEE795FAAD
:10348C00A5F3B3FA83F304FA03F29B0003F1804330
:10349C0003F5C04325EA0205D3F81005D3F810153F
:1034AC00C0F30420C1F30141FFF7E8FC91E700BF32
:1034BC0000610040006000402061004028000020B6
:1034CC0001460148FFF790BB8400002010B5144C56
:1034DC00144A1549032323616361144BA261E36110
:1034EC004FF4806323620023A3626362E36222666B
:1034FC000F4A6266E01D1022A2662367E3666367CB
:10350C0001F02FF8BFF35F8F0A49204601F029F82C
:10351C00BFF35F8F2023A371BFF35F8F10BD00BF7C
:10352C009C020020965600009F5600008C03002041
:10353C007C030020A3560000F7B505460E464FF05D
:10354C002003EFF3118783F31288BFF36F8F00F022
:10355C00B7FC042D96BF184B184B53F8253000229E
:10356C000446009216482A46452100F0DEFF3EB183
:10357C00F369C3F308031BB11248452100F0D5FFD2
:10358C0034B1204601F06FFA034608B1027802B953
:10359C000D4B0E482246452100F0C7FF3146284608
:1035AC00FFF7C0F987F31188BFF36F8F204603B084
:1035BC00BDE8F040FEF708BA744F0000AA560000B0
:1035CC00C0560000ED560000B8560000135700001E
:1035DC00104B70B553F82040013053F82060A642D0
:1035EC0000D870BDD4E900358DB12846984738B164
:1035FC000028B8BF4042EB68FF28A8BFFF20187016
:10360C00EA68537843F0010353700834E7E79847AE
:10361C00FBE700BF884F000008B50A4B01220320CE
:10362C001A70FFF7D5FF00F00BFE0420FFF7D0FF58
:10363C0000F0F0F8FCF7D2FE034A137B23F00103F1
:10364C00137308BD8C0700203801002008B503480F
:10365C00034A0021121A01F0FCF908BD9800002061
:10366C009007002070B5002386B00122CDE9042319
:10367C00134E144D01930F22CDE90232124914233B
:10368C0003FB005506EBC01604464FF4C07000FB5C
:10369C0004110E4B00954FF4A072304600F088F8E0
:1036AC00737B0B4AEE6023F0040373734FF40463D3
:1036BC0004FB033313442C746B6006B070BD00BF65
:1036CC00B80000204403002000100020D93800006E
:1036DC00C007002080B50020A6B0FFF779FF2D4B66
:1036EC0083F308882C4D2D4E6B692D4F43F40073DA
:1036FC006B610024E02385F82230EC772C766C7615
:10370C00AC7685F820406B6A43F4E0236B6285F855
:10371C002340FEF7CDF8FDF755FD4FF0FF33AB62BC
:10372C00EB62FEF70BFAFEF765F940F20113ADF808
:10373C00243006ABB360CDE91F44229401F07DF92F
:10374C000120FFF745FF0220164DFFF741FF00F067
:10375C0013FB154BB5610593012314490094CDE976
:10376C0003434FF480623B46CDE90144284600F008
:10377C001FF86A7B064622F0040228466A7301F0A1
:10378C00B5F92046FFF76EFF3A4631462846FDF75D
:10379C0041FE00BF0010002000ED00E044030020BB
:1037AC0025360000380100207A57000080110020D7
:1037BC002DE9FF410E9E0673042646730D9E8673FB
:1037CC0000F158050F46D61DC0E916550C9A002578
:1037DC0026F007064037C0E90655C0E91976856022
:1037EC00C573C56606F1400802920B9A0192884493
:1037FC000A9A009242460446FDF7DAFD044B6565D1
:10380C009B6803B11B6F2367404604B0BDE8F08191
:10381C00440300202DE9F043294C2A4D87B026465D
:10382C00AE4204F12C040FD300F076FA244CDFF8EE
:10383C0098904FF4004640F2E737AC4220D307B0E3
:10384C00BDE8F04300F07CBA54F8043C059354F8FE
:10385C000C3C049354F8103C039354F8143C02931E
:10386C0054F8183C019354F81C3C009354E9092378
:10387C0054E90B01FFF79CFF54F82C3C5E65CEE736
:10388C00636A5A1C0DD023EAE37300213846C3FB4C
:10389C00060151EAC333D4F8008004D1404600F04D
:1038AC00EBF92C34C9E74FF47A720023FCF710FCC7
:1038BC0002460B4608F11800494600F0C7FBF0E73A
:1038CC00E84D0000E84D00005D4B000008B50B4CC6
:1038DC000B4D4FF02002EFF3118382F31288BFF3EC
:1038EC006F8F01F081F92B78606113B9FDF770FCD3
:1038FC00EFE7FDF799FB0028EBD1F7E74403002035
:10390C008C07002038B504464FF02003EFF31185E7
:10391C0083F31288BFF36F8F01F01EF948B10022B8
:10392C00826701F0E3F829460548BDE8384000F00D
:10393C0091B9D4E902329A4218BF0133A360F2E77D
:10394C008D07002013B54FF02004EFF3118184F3A1
:10395C001288BFF36F8F846844B1013C846081F39B
:10396C001188BFF36F8F002002B010BD52EA030420
:10397C0006D181F31188BFF36F8F6FF00F00F3E75F
:10398C00CDE900230246024800F046F9ECE700BFFF
:10399C008D070020C3897F2B12D80A4B1B6863B19B
:1039AC00094B90F90E201B689A4209DB437BDB061E
:1039BC0006D1064BC31A18BF012303F00100704750
:1039CC000023FAE7700300206C030020B8000020ED
:1039DC00044BC01A044BC0105843044B01221A5418
:1039EC00704700BFB8010020ABAAAAAA8D0700201F
:1039FC0070B50E4B0E4C1E7C06EB460304EBC30459
:103A0C000546204601F0DAF80A4B002228469A5562
:103A1C00FFF7C0FF48B1084B08491A68013A204625
:103A2C00D317BDE8704000F011BB70BD44030020FB
:103A3C00B80100208D07002070030020DD39000044
:103A4C0038B50D4D2B4653F81C4F9C4200D004B991
:103A5C00EC68AB6838B95A7BD20604D1A26912B9AA
:103A6C00DA897F2A05D89C4202D02046FFF7C0FF96
:103A7C002346AB6138BD00BF4403002070B590F9FC
:103A8C000D20437B002A014604DA03F07F034373C5
:103A9C0000F0F2FF4B7B154A63F07F0310464B732B
:103AAC0050F81C3F146A834208BF002323B9C1E9B4
:103ABC000004216011620CE091F90E5093F90E6034
:103ACC00B5420ED0AE420CDD5868C1E90030016041
:103ADC0059609068431A5842BDE870405841FFF74E
:103AEC00AFBF9C42E3D01B68E0E700BF440300205B
:103AFC0070B490F90D30427B002B29DBD30627D113
:103B0C0083692BBB134962F07F0242730A4652F859
:103B1C001C4F944218BF23460C6A23B9C0E90024F9
:103B2C00206008620CE090F90E5093F90E60B542DB
:103B3C000AD0AE4208DD5A68C0E900321060586005
:103B4C0070BC0020FFF77CBFA342E7D01B68E4E702
:103B5C0070BC70474403002008B590F90D20437BDE
:103B6C00002A014604DA03F07F03437300F084FF5C
:103B7C00044B9868431A58425841BDE80840FFF777
:103B8C005FBF00BF4403002070B515461C460646B7
:103B9C0000F084FFB4F1FF3F08BFB5F1FF3F08D040
:103BAC002A46234606F118000249BDE8704000F091
:103BBC004DBA70BD5D4B000038B54FF02003EFF3EC
:103BCC00118583F31288BFF36F8F104B104A9C68DA
:103BDC001068A04206D1FFF70BFF85F31188BFF3E5
:103BEC006F8F38BD00211B7C11600A4AD35C002BFF
:103BFC00F3D02046FFF7CEFE0028EED0637BDB0629
:103C0C0002D12046FFF73AFF2046E4E744030020A8
:103C1C00680300208D07002070B50C480C4D866899
:103C2C002E600C461146DDE904234FF02006EFF31D
:103C3C00118586F31288BFF36F8F8068FFF7A4FF9E
:103C4C002046BDE87040FDF75FBB00BF4403002079
:103C5C006803002049B9EFF3058030B9054B9A6928
:103C6C009B689A4201D0FDF74FBB81F31188BFF3DB
:103C7C006F8F70474403002010B54FF02002EFF314
:103C8C00118482F31288BFF36F8F427B510704D4E7
:103C9C0084F31188BFF36F8F10BD22F004024273BE
:103CAC00FFF726FF21460248BDE81040FFF7D2BFC0
:103CBC008E07002070B50446183000F07FFF4FF0DF
:103CCC002003EFF3118683F31288BFF36F8F94F9FF
:103CDC000D20637B002A05DA03F07F036373204613
:103CEC0000F0CAFE0B4D637BA86843F010036373AE
:103CFC00031B58425841FFF7A3FE86F31188BFF30C
:103D0C006F8FAB68A34203D1BDE8704000F04CBF8D
:103D1C0070BD00BF440300204FF02003EFF311816E
:103D2C0083F31288BFF36F8F044B9A68D37B013BEC
:103D3C00D37381F31188BFF36F8F70474403002056
:103D4C0010B54FF02003EFF3118483F31288BFF307
:103D5C006F8F084B9A68D37B0133D3730020FFF726
:103D6C006FFE84F31188BFF36F8FBDE8104000F035
:103D7C001BBF00BF44030020024B03F11C02C3E92C
:103D8C000722704744030020F8B54FF02003EFF3EF
:103D9C00118583F31288BFF36F8F19498868437BB1
:103DAC0003F07F03437300F067FE8B685A7B084671
:103DBC0062F07F025A7350F81C2F0C6A824208BFC3
:103DCC00002222B9C3E9000423600B620CE093F9D2
:103DDC000E6092F90E70BE420ED0B7420CDD5168E7
:103DEC00C3E900210B6053600120FFF729FE284630
:103DFC00BDE8F840FDF788BAA242E3D01268E0E7CC
:103E0C004403002050EA01032DE9F04105460E461B
:103E1C0003D1FFF7B9FF00202CE0831C71F1FF33B5
:103E2C002ADB00F0F1FE2C184FF02003EFF3118881
:103E3C0083F31288BFF36F8F114F124BB868186061
:103E4C00FFF78AFEB86810492A463346183000F04E
:103E5C00FDF8BA68537B43F0100353734046FDF7EB
:103E6C0053FA00F0D1FE201A63EB0303012873F11F
:103E7C000003D0DBBDE8F0816FF00104241AD3E716
:103E8C0044030020680300205D4B0000B1F1FF3FAC
:103E9C0008BFB0F1FF3F08B506D1084B9868FFF793
:103EAC0009FF4FF0FF3008BDFFF7ACFF4FF47A73FA
:103EBC0080FB0303C00B40EA4340F4E744030020BB
:103ECC00014B9868704700BF440300202DE9F04176
:103EDC0004464FF02003EFF3118683F31288BFF3EF
:103EEC006F8F037BD9070BD586F31188BFF36F8FC8
:103EFC00404080F311884FF0040002DFBDE8F081F0
:103F0C00437B1A0704D586F31188BFF36F8FF5E74F
:103F1C0023F0200242F00801D20920D14173A3689A
:103F2C0013B1204600F0B0FD04F1180000F046FE7D
:103F3C0004F158074FF00008A56DBD4200D0B5B98B
:103F4C000120FFF77DFD104B9B68A342DBD1EFF303
:103F5C000583002BD7D13046FDF7D6F9D3E703F014
:103F6C005F0343F00803437300F086FDD7E7284650
:103F7C0000F08AFD05F1180000F020FEC5F87880ED
:103F8C002846FFF7B5FDD7E74403002008B50648DF
:103F9C00064A0749121A00F05EFDBDE80840054AC2
:103FAC000549064800F057BD00000020960000208F
:103FBC00B057000000000000B057000000000020C7
:103FCC00034B1B680BB9FEF7A3BC0020704700BF66
:103FDC007403002010B50E4B1C689C4204D1FFF7F3
:103FEC00EFFF6FF0004010BDFFF7EAFF002CF8D098
:103FFC00D4E904321B1A62EBE072B3F1004F72F198
:10400C000001EEDA002AACBF18460020EBE700BF37
:10401C008800002030B570B10B4B5B6898420AD019
:10402C00036843B1D3E90421D0E90445121941EBEB
:10403C000501C3E90421D0E9003213605A60002362
:10404C00C0E9003330BD00BF88000020B3F1FF3F52
:10405C0008BFB2F1FF3FF8B504461D4616465CD0CA
:10406C0081604FF02003EFF3118783F31288BFF3C5
:10407C006F8F013275F1FF3324DA2D49D1E900201D
:10408C006FF001039B1A4FF0FF3262EB00009E1B96
:10409C0060EB0500012E70F1000301DA012600200F
:1040AC00C4E90460234ED6F800C07568B44508BF57
:1040BC004FF0000CBCF1000F0DD1C4E900652C6071
:1040CC0074601CE0FFF77CFF013645F100053618E3
:1040DC0045EBE070E4E7DCE90420D4E904319342D9
:1040EC0071EB000E1ADAD21ADCF8043060EB010026
:1040FC00CCE90420C4E900C31C60CCF8044033684C
:10410C00B34206D09C4204D1FFF764FF0021FEF7B6
:10411C00CDFB87F31188BFF36F8FF8BD9B1A61EB52
:10412C000001AC45C4E90431C7D0DCF800C0C1E7DC
:10413C00D0010020880000202DE9F84F4FF020031B
:10414C00EFF3118C83F31288BFF36F8FDFF8B0A0FD
:10415C00DFF8B0902C4FC9F80000DAF8000000240A
:10416C00504508BF00200025D7E90021D9F80030C0
:10417C00E04680B3D0E9046C4FEAE37EB3427EEBB9
:10418C000C0B05DAF61A6CEB0E04C0E9046422E0A1
:10419C00B21841EBE671C0E90445C7E90021FFF70D
:1041AC0039FF88F31188BFF36F8F836898474FF0FE
:1041BC002003EFF3118883F31288BFF36F8FD9F8C4
:1041CC000030DAF800009B1B5045C446C9F800309B
:1041DC00CAD1D7E900219A1841EBE3730024C7E94F
:1041EC000023C9F80040FFF7F5FE2146FEF75EFB01
:1041FC0088F31188BFF36F8FBDE8F84FFFF7DCBC75
:10420C008800002074030020D001002010B54FF06E
:10421C002003EFF3118483F31288BFF36F8FFFF742
:10422C00CFFE064A0346D2E90001181841EBE371B0
:10423C0084F31188BFF36F8F10BD00BFD001002035
:10424C00014800F024B800BF82570000F0B40346C8
:10425C000A461979DB8800681343DC028768066913
:10426C0006D513F4402F03D0DA0748BF83F440235C
:10427C00346801258D4023F48012DB074CBF2C439E
:10428C00AC4334603B68F0BC1847002070470FB457
:10429C0007B504A951F8040B0191FCF72BF903B0F5
:1042AC005DF804EB04B07047044608B508461146A7
:1042BC001A46A047FFF704FEFDF786FB038B13F0AD
:1042CC00070305D10368002B0CBF002003207047A7
:1042DC00022B05D1408BB0FA80F04009800070476A
:1042EC00012B05D10368002B0CBF00200520704763
:1042FC000020704710B50C4600B111B96FF01500D5
:10430C0010BD081D00F095F80028F9D1A368032B07
:10431C00F6D9F3E72DE9F0410D4607461946281D5D
:10432C0090461E4600F096F8044638B13346424695
:10433C0029463846A446BDE8F0416047BDE8F08107
:10434C0010B44FF02004EFF3118284F31288BFF302
:10435C006F8F416110BC0121FCF7DAB838B50C46FF
:10436C00054658B151B10B6843B14B6833B11C22AF
:10437C00002100F01BF92C61002038BD6FF01500F6
:10438C00FBE770B505460E46FFF7B4FF041E15DBC0
:10439C004FF02003EFF3118283F31288BFF36F8F7A
:1043AC006B8B2C8B4FF6FF718B4204F0070407D1FB
:1043BC0082F31188BFF36F8F6FF00A04204670BD33
:1043CC00022C0CD101336B8382F31188BFF36F8FF6
:1043DC000023224631462846FFF79CFFEEE7062CC9
:1043EC0014D8DFE804F004131313041A0400002398
:1043FC0033606B683BB9C5E90066ACB9022128464D
:10440C00FCF786F8DAE71E606E60F6E782F3118837
:10441C00BFF36F8F6FF00404D0E782F31188BFF302
:10442C006F8F6FF08504C9E782F31188BFF36F8F2C
:10443C00C4E7034658B1426802F00302012A03D0D4
:10444C00032A04D1026812B10020986070476FF003
:10445C00150070474268816002F00302032A4FF096
:10446C00000203460CBF006810465A6070472DE9E5
:10447C00F84F9A46D3786F2B80460F461546A3F11A
:10448C00410B29D024D8582B0CBF10260A26DDF856
:10449C0028903246002340463946FBF719FE092A7C
:1044AC00D4B21ED83034B045E4B277F1000709F825
:1044BC00014D01D3D14511D82B789B0605D5082E7B
:1044CC0015D1AB7843F00803AB704846BDE8F88FC4
:1044DC0003F0F703702BD7E70826D8E780460F4682
:1044EC00D7E7BBF1190F94BF37345734DBE7102EE5
:1044FC00EBD1AB7843F01003E6E72DE9F04107462A
:10450C00884615461E461446B44205D30EB1601BB0
:10451C0008E02378002BFAD014F8010B4146B84779
:10452C000028F1DABDE8F08170470FB407B504A993
:10453C0051F8040B0191FBF7DDFF03B05DF804EBC0
:10454C0004B0704701460068FCF75CBE00210120F6
:10455C00FCF758BE08B5FCF7B7FEBDE80840FCF701
:10456C008FBF0139034611F8012F0AB91A70704731
:10457C0003F8012BF7E7034600201A5C02B97047D9
:10458C000130FAE7034600201A5C0AB1884200D1D8
:10459C0070470130F8E710B5431E0A44914200D130
:1045AC0010BD11F8014B03F8014FF7E7C9B20244F3
:1045BC000346934200D1704703F8011BF9E74FF013
:1045CC00FF307047062808D14FF080430122C3F812
:1045DC000025BFF34F8F20BFFDE77047002383F307
:1045EC001188BFF36F8F70470369C9B20C2201FBAE
:1045FC000233186C00F0070070474FF02003EFF304
:10460C00118283F31288BFF36F8F036803F0C0032A
:10461C0043F00203036082F31188BFF36F8F70477E
:10462C0070B5C9B203694FF02004EFF3118584F320
:10463C001288BFF36F8F0C2606FB0134246C14F028
:10464C00C00408D0A24206D085F31188BFF36F8F47
:10465C004FF0FF3070BD71430B4401221A6485F397
:10466C001188BFF36F8F43680B445B689847002039
:10467C00F0E78022FFF7D4BFF8B5069F0469C9B2F2
:10468C004FF02005EFF3118685F31288BFF36F8F7F
:10469C000C2569430C44256C05F0070CBCF1010F8B
:1046AC000BD1276486F31188BFF36F8FC4E90E23F7
:1046BC0043685B5898470020F8BD05F0C005AF4231
:1046CC0086F31188BFF36F8F0CBF6FF077004FF03C
:1046DC00FF30F1E713B580240094FFF7CDFF02B053
:1046EC0010BD10B40069CBB21C2403FB04000021E4
:1046FC0010BC1047002000F089B91046FFF702B932
:10470C0043685B68D3F810350B6000207047436832
:10471C005B6802EA010021EA0201C3F80805C3F84C
:10472C000C150020704743685B680020C3F808151F
:10473C00704743685B680020C3F80C1570474368EA
:10474C005A68D2F8043521EA03000B40C2F8080578
:10475C00C2F80C350020704710B503695868F8B1E1
:10476C00884219D19C6808685860A14200D19860B1
:10477C00002008602AB15A680A609A68596002B928
:10478C009960002010E0814206D10868206098688A
:10479C008142EDD19C60EBE7044600680028F2D121
:1047AC00002AE8D16FF0150010BD30B543681360D6
:1047BC00057A446804EBC504A34202D36FF00100F0
:1047CC0030BD5C798C4201D00833F0E70020F7E76C
:1047DC002DE9F04100EB810101274FF0A046814209
:1047EC0002D10020BDE8F081056805F07F03C5F318
:1047FC0043247F2B4FEA154508BF4FF0FF33192D8B
:10480C006AD8DFE805F00D171C1F222E1F69696995
:10481C00693255696969696969696969586063666A
:10482C00C2F80C3503F01F0507FA05F5C6F8085554
:10483C00012502E0C2F814350025AC461CE0C2F894
:10484C000835EFE7C2F81035F6E7C2F80835002551
:10485C0003F01F0C07FA0CFCC6F80CC54FF0010C4A
:10486C000AE0C2F80C350125F2E7C2F80835002C35
:10487C00E2D10025AC46062450F804EB0EF40058A7
:10488C00B8F1000FCEF3C11E4FEA042418BF4FF04D
:10489C00000C03F01F0344EA8E0418BF012544EA00
:1048AC000C0403F5E07344EA450446F8234096E70C
:1048BC00C2F80C35DBE7C2F860350568C5F3803506
:1048CC00002DD0D0AEE7C2F86435F6E7C2F86835F3
:1048DC00F3E7C2F86C35F0E76FF0850082E7026908
:1048EC000B46D2E9010183E80300002070474368BE
:1048FC001B68D3F88004C3F88004704743680269CE
:10490C001B68D3F8100150B15269002012780A705C
:10491C00C3F81001D3F8102101221A6070474FF030
:10492C00FF30704702680346D2F8580140B95B6803
:10493C009B0706D4D2F82001003818BF012070471D
:10494C000120704742681368D3F80413C90518D5C1
:10495C00D3F82011A9B14FF02000EFF3118180F3AF
:10496C001288BFF36F8FD3F8200130B10020C3F849
:10497C002001D3F820010120D86081F31188BFF306
:10498C006F8F5268D20615D54FF02001EFF31182CC
:10499C0081F31288BFF36F8FD3F8581111B1002136
:1049AC00C3F800154FF48001C3F8081382F3118883
:1049BC00BFF36F8F7047704700F150039B009BB2A1
:1049CC0003F1804303F5883300221A601B6870479B
:1049DC004FF08053D3F83001421C04BF4FF07043AA
:1049EC0093F8E00F831F584258417047004700F07E
:1049FC000FB908B50020FCF741FC08B9FCF730FCF6
:104A0C004FF080430022C3F8182508BDFEF72CB9DF
:104A1C0000F01F00800000F1A040D0F8003723F414
:104A2C00403343EA0143C0F800377047FEF74EBDF0
:104A3C0008B5FFF7FBFF002008BD704740B1C36805
:104A4C00587810F001001EBF1878B0FA80F04009B9
:104A5C007047FFF7ABBDFFF79EBDEFF30580003845
:104A6C0018BF012070470020704708B5FCF7A0FA6A
:104A7C00BDE80840FFF79FBFD0E9003213605A60D1
:104A8C000023C0E90033704708B5FFF7F5FF437BFF
:104A9C0023F0020343730023836008BD38B504463A
:104AAC000D46FFF759F8637B43F002036373E5B1DE
:104ABC00A5602B689D4209D16B68C4E900531C604A
:104ACC006C6012E06A689342F6D01B68002BF3D03E
:104ADC0094F90E2093F90E108A42F3D09142F1DD35
:104AEC005A68C4E9003214605C6038BD10B54FF0F0
:104AFC002003EFF3118483F31288BFF36F8FFEF75B
:104B0C00F7FF84F31188BFF36F8F10BD38B50446DF
:104B1C004FF02003EFF3118583F31288BFF36F8FEF
:104B2C00437B13F0280F0BD183680BB1FFF7ACFF5D
:104B3C00637B51B903F0FB0363732046FEF7D8FF88
:104B4C0085F31188BFF36F8F38BD03F0EB03F3E7E8
:104B5C0001211838FFF7DABF38B54FF02003EFF317
:104B6C00118583F31288BFF36F8F0468A0420DD0B8
:104B7C0034B12046FFF788FF04F1180000F01EF84E
:104B8C0085F31188BFF36F8F204638BD0024F7E7FB
:104B9C00034620B9EFF305820AB9FCF7B5BB83F3E2
:104BAC001188BFF36F8F70474FF02003EFF3118024
:104BBC0083F31288BFF36F8FFFF7EABF10B54FF086
:104BCC002002EFF3118482F31288BFF36F8F036816
:104BDC003BB1FFF71FFA002084F31188BFF36F8FEE
:104BEC0010BD6FF01500F7E710B54FF02003EFF391
:104BFC00118483F31288BFF36F8FFFF7EBF984F303
:104C0C001188BFF36F8F10BD08B5FFF7FFFA08BD11
:0C4C1C0008B1FCF7F7BF704770470000BC
:084C2800E8B4FF7F0100000069
:104C3000B51B000000000000CD1C0000684C000007
:104C40003D4A00000000000045200000804C0000AC
:104C50003D230000984C00002D1F000000000000C4
:084C60005927000000000000CC
:104C6800C7550000C04E0000D84E0000900000203C
:104C780028020020F44D0000F0550000F44E00001A
:104C8800044F0000920000207C020020EE4D00003E
:104C980022560000284F00005C4F000094000020BE
:084CA8000C000020E84D0000A3
:104CB0000D2E0000F94900000000000059450000D9
:104CC000984C0000514900000000000059450000C8
:104CD0000000000059450000000000005945000098
:104CE00079330000F9490000000000005945000038
:104CF0000000000059450000000000005945000078
:104D00000000000059450000000000005945000067
:104D10000000000059450000000000005945000057
:104D20000000000059450000000000005945000047
:104D3000000000005945000000000000E5270000C9
:104D40000000000059450000000000005945000027
:104D50000000000059450000000000005945000017
:104D60000000000059450000000000005945000007
:104D700000000000594500000000000059450000F7
:104D800000000000594500000000000059450000E7
:104D900000000000594500000000000059450000D7
:104DA00000000000594500000000000059450000C7
:104DB00000000000594500000000000059450000B7
:104DC00000000000594500000000000059450000A7
:104DD0000000000059450000000000005945000097
:084DE00000000000594500002D
:104DE80000800080FF7F00800080FF7F00800080BF
:024DF800FF7F3B
:024DFA00FFFFB9
:104DFC00A6500000040000007656000000000000E1
:104E0C0081560000000000008D56000000000000DC
:104E1C00B250000003000000E25500000300000047
:104E2C0056560000030000005D5500000300000012
:104E3C007F57000003000000E15000000300000059
:104E4C00C3550000030000003056000003000000B2
:044E5C00FFFFFFFF56
:104E6000000102030405060748656C6C6F00000032
:104E70000338FDD870470000804C0000110001008D
:104E8000804C00000D001100000000200000000018
:104E900000000B06020000009C4E00000000000015
:104EA000B45500002400020700000020BC5500009B
:104EB0001E000B11551C0000251C00000000000006
:104EC000751D0000991C0000D65500000D1E000045
:104ED00001470000DC550000D91D00007F4600009E
:104EE000E146000000000000F54500000000000061
:104EF00000000000FFFFFFFF000000500000000066
:104F000000000000B92000000D4700001B47000012
:104F1000334700003F4700004B4700007D1F000063
:104F20006547000000000000002000400200000073
:104F300000000000384F000000200040444F0000F7
:104F4000010000004C4F00000400000006000000BB
:104F500008000100050002000700030009490000E5
:104F600041240000FB480000E1210000EB48000064
:104F7000F5FFFFFF305700003E570000525700007A
:104F8000615700006D570000304C0000304C0000AD
:104F9000604C0000684C0000684C0000684C000049
:104FA00025633A2043616C63756C6174696E672098
:104FB00074686520666163746F7269616C73206FD9
:104FC00066206E756D62657273203120746F2025C6
:104FD000643A0A0025633A20546865206661637468
:104FE0006F7269616C206F6620253264203D202538
:104FF0006C640A0025633A206E524620436F6E6E41
:105000006563742053444B2046756E64616D656E14
:1050100074616C730A0025633A2045786572636990
:1050200073652025640A0025633A2041206C6F6770
:10503000206D65737361676520696E2064656275B4
:1050400067206C6576656C0A0025633A2041206C08
:105050006F67206D65737361676520696E20776186
:10506000726E696E67206C6576656C210A00256337
:105070003A2041206C6F67206D657373616765200E
:10508000696E206572726F72206C6576656C210A9C
:105090000053616D706C652044617461210025636B
:1050A0003A2025730A004C657373345F4578657246
:1050B000330063627072696E74665F7061636B6106
:1050C000676500286E696C290025633A2000253049
:1050D00032782000202020007C00256300455749BD
:1050E00044706D0025633A2072302F61313A2020E0
:1050F000307825303878202072312F61323A2020E4
:10510000307825303878202072322F61333A2020D1
:105110003078253038780A0025633A2072332F61C1
:10512000343A2020307825303878207231322F6997
:10513000703A2020307825303878207231342F6C46
:10514000723A20203078253038780A0025633A20DA
:1051500020787073723A20203078253038780A0031
:1051600025633A204661756C74696E6720696E73B9
:105170007472756374696F6E2061646472657373B1
:1051800020287231352F7063293A20307825303845
:10519000780A0025633A202A2A2A2A2A204D5055C7
:1051A000204641554C54202A2A2A2A2A0A002563DF
:1051B0003A202020537461636B696E6720657272B8
:1051C0006F722028636F6E746578742061726561F8
:1051D000206D69676874206265206E6F7420766147
:1051E0006C6964290A0025633A202020556E737487
:1051F00061636B696E67206572726F720A00256366
:105200003A202020446174612041636365737320F8
:1052100056696F6C6174696F6E0A0025633A2020CD
:10522000204D4D46415220416464726573733A20AB
:10523000307825780A0025633A202020496E73745F
:1052400072756374696F6E20416363657373205672
:10525000696F6C6174696F6E0A0025633A202020C3
:10526000466C6F6174696E672D706F696E74206C27
:10527000617A7920737461746520707265736572E8
:10528000766174696F6E206572726F720A002563B1
:105290003A202A2A2A2A2A205553414745204641A6
:1052A000554C54202A2A2A2A2A0A0025633A20200B
:1052B000204469766973696F6E206279207A65721D
:1052C0006F0A0025633A202020556E616C69676E75
:1052D0006564206D656D6F727920616363657373BA
:1052E0000A0025633A2020204E6F20636F70726F92
:1052F000636573736F7220696E737472756374691A
:105300006F6E730A0025633A202020496C6C656734
:10531000616C206C6F6164206F66204558435F525A
:10532000455455524E20696E746F2050430A002533
:10533000633A202020496C6C6567616C2075736549
:10534000206F662074686520455053520A0025631B
:105350003A202020417474656D707420746F20654C
:1053600078656375746520756E646566696E6564DD
:1053700020696E737472756374696F6E0A002563B9
:105380003A202A2A2A2A2A20425553204641554C9F
:1053900054202A2A2A2A2A0A0025633A2020205348
:1053A0007461636B696E67206572726F720A0025A3
:1053B000633A2020205072656369736520646174CC
:1053C0006120627573206572726F720A0025633AFC
:1053D0002020204246415220416464726573733A32
:1053E00020307825780A0025633A202020496D7006
:1053F00072656369736520646174612062757320EE
:105400006572726F720A0025633A202020496E731C
:105410007472756374696F6E206275732065727241
:105420006F720A0052657365727665642045786311
:10543000657074696F6E20280053707572696F759E
:105440007320696E746572727570742028495251A8
:10545000200025633A20535053454C20696E207438
:105460006872656164206D6F646520646F65732088
:105470006E6F7420696E6469636174652050535067
:105480000A0025633A202A2A2A2A2A20484152441F
:10549000204641554C54202A2A2A2A2A0A002563EC
:1054A0003A202020427573206661756C74206F6EFF
:1054B00020766563746F72207461626C652072651A
:1054C00061640A0025633A202020446562756720E4
:1054D0006576656E740A0025633A20202046617562
:1054E0006C7420657363616C6174696F6E202873DE
:1054F00065652062656C6F77290A0025633A204153
:105500005243485F4558434550542077697468209A
:10551000726561736F6E2025780A0A0025633A2050
:105520002A2A2A2A2A204465627567206D6F6E69CF
:10553000746F7220657863657074696F6E202A2AB3
:105540002A2A2A0A0025633A202A2A2A2A2A2025DA
:105550007320256429202A2A2A2A2A0A006D7075B8
:105560000025633A20506172746974696F6E20255A
:10557000753A2073616E69747920636865636B2086
:105580006661696C65642E0A0025633A204661698C
:105590006C656420746F20616C6C6F63617465204E
:1055A0006E6577204D505520726567696F6E2025B6
:1055B000750A0A00464C4153485F30005352414D32
:1055C0005F3000736F6300636C6F636B4034303027
:1055D0003030303030006866636C6B006C66636C32
:1055E0006B00636C6F636B5F636F6E74726F6C00E4
:1055F0006770696F403530303030303030002563AF
:105600003A204661696C656420746F20616C6C6F30
:105610006361746520505049204368616E6E656C0B
:105620000A007561727440343030303230303000EE
:10563000756172745F6E7266785F75617274650011
:1056400025633A20526573657474696E67207379B7
:105650007374656D0A00666174616C5F6572726F68
:1056600072000000000001000000010100000101C3
:105670000101000000004E5246585F434C4F434B1F
:10568000004E5246585F4750494F5445004E5246CF
:10569000585F505049005465726D696E616C0052DC
:1056A00054540053454747455200556E6B6E6F7713
:1056B0006E206572726F7200756E6B6E6F776E0022
:1056C00025633A203E3E3E205A45504859522046D6
:1056D0004154414C204552524F522025643A2025D6
:1056E00073206F6E204350552025640A0025633ACD
:1056F000204661756C7420647572696E6720696EEE
:10570000746572727570742068616E646C696E671E
:105710000A0A0025633A2043757272656E7420741C
:1057200068726561643A20257020282573290A0073
:1057300043505520657863657074696F6E00556ECF
:1057400068616E646C656420696E746572727570F0
:105750007400537461636B206F766572666C6F774B
:10576000004B65726E656C206F6F7073004B6572D5
:105770006E656C2070616E6963006D61696E006FAB
:1057800073002A2A2A20426F6F74696E67205A6557
:1057900070687972204F53206275696C642076338B
:1057A0002E332E39392D6E637331202A2A2A0A00AE
:1057B00097420000FFFFFFFFCB4500000000000004
:1057C00000C2010000010300000000007B03002074
:1057D0007A0300200000000000000000000000002C
:1057E00000000000000000000000000000000000B9
:1057F00000000000000000000000000000000000A9
:105800000000000000000000000000000000000098
:105810000000000000000000000000000000000088
:105820000000000000000000FF0000000000000079
:1058300000000000FFFF0F0088000020880000200B
:0658400000000000000062
:0458460015E015E074
:04000003000018F9E8
:00000001FF
