:10000000401E0020BD2E000007670000912E00005A
:10001000912E0000912E0000912E000000000000A3
:100020000000000000000000000000008D2700001C
:10003000912E00000000000039270000912E0000E2
:100040003D2800003D2800003D2800003D2800001C
:100050003D2800003D2800003D2800003D2800000C
:100060003D2800003D2800003D2800003D280000FC
:100070003D2800003D2800003D2800003D280000EC
:100080003D2800003D2800003D2800003D280000DC
:100090003D2800003D2800003D2800003D280000CC
:1000A0003D2800003D2800003D2800003D280000BC
:1000B0003D2800003D2800003D2800003D280000AC
:1000C0003D2800003D2800003D2800003D2800009C
:0C00D0003D2800003D2800003D280000F5
:1000DC0053B94AB9002908BF00281CBF4FF0FF31A3
:1000EC004FF0FF3000F00CB8ADF1080C6DE904CE08
:1000FC0000F008F8DDF804E0DDE9022304B07047F5
:10010C00704700BF2DE9F04786468C460846089E8E
:10011C00154674461946002B40F0C2808542B2FA4F
:10012C0082F245D94AB1C2F1200300FA02FC2EFA40
:10013C0003F3954043EA0C0C94404FEA154EA8B2D9
:10014C00BCFBFEF8230C0EFB18CC08FB00F943EAB1
:10015C000C43994528D9EB1808F1FF3704D299457F
:10016C0002D9A8F102072B44A3EB0903A4B2B3FBF9
:10017C00FEFC0EFB1C330CFB00F044EA0344A042D3
:10018C0014D92C190CF1FF3304D2A04202D9ACF1D2
:10019C0002032C44241A43EA07401EB1D440002326
:1001AC0034607360BDE8F0874746DDE76346F1E7EE
:1001BC0092BB431B01214FEA154EAFB2B3FBFEFCC1
:1001CC00200C0EFB1C330CFB07F840EA034398454C
:1001DC0062D9EB180CF1FF3004D2984502D9ACF17E
:1001EC0002002B44A3EB0803A4B2B3FBFEFC0EFBF2
:1001FC001C330CFB07F744EA0344A7424ED92C19D5
:10020C000CF1FF3304D2A74202D9ACF102032C4407
:10021C00E41B43EA0040C0E7C2F1200320FA03F1DB
:10022C00954090402EFA03F303434FEA154EAFB2BC
:10023C00B1FBFEFC0EFB1C10190C0CFB07F841EA81
:10024C000041884504FA02F422D969180CF1FF30F8
:10025C0004D2884502D9ACF102002944A1EB080173
:10026C009BB2B1FBFEFC0EFB1C110CFB07F743EA27
:10027C0001439F420ED9EB180CF1FF3104D29F427F
:10028C0002D9ACF102012B44DB1B41EA004192E79D
:10029C006046E3E76146F7E76046A3E76346B7E7E6
:1002AC00834206D916B9002108467BE7C6E900E06F
:1002BC00F9E7B3FA83F78FB9834201D3724508D8B3
:1002CC00BEEB020460EB030301209C461EB9002127
:1002DC0068E73846FAE7C6E9004CF8E7C7F1200CA6
:1002EC00BB4022FA0CF41C432EFA0CF120FA0CF34E
:1002FC00B84001434FEA14490EFA07F5B3FBF9F87D
:10030C001FFA84FE09FB18300B0C08FB0EFA43EAAB
:10031C0000439A4502FA07F240D9E31808F1FF307E
:10032C0004D29A4502D9A8F102002344A3EB0A0394
:10033C0089B2B3FBF9F809FB183308FB0EFE41EA4E
:10034C0003418E452CD9611808F1FF3304D28E4538
:10035C0002D9A8F10203214443EA0040A0FB029811
:10036C00A1EB0E014145CE46434602D306D14D4585
:10037C0004D2B9EB020E68EB04030138002EA6D0B0
:10038C00B5EB0E0261EB030101FA0CFC22FA07F348
:10039C004CEA0303F940C6E9003198E74046C5E74B
:1003AC004346D9E72DE9F84300AF6C4688B06A465E
:1003BC00164B53610A239361032342F8103F1448F0
:1003CC00144DDFF84C8000234FF4C65101F010FCA3
:1003DC000426A54601240123194659430133A3429F
:1003EC00FBDDE94688B06A46C2E90554D16142F8A2
:1003FC00106F00234FF403514046013401F0F8FB19
:10040C000B2CCD46E7D1BD46BDE8F8831473000034
:10041C008C700000437300002DE9F0474F4B8AB0FD
:10042C0000AF3A4603F10805B846186859681446F7
:10043C0003C40833AB422246F7D118681B792060FD
:10044C002371E946464B7B6202263E6245480023F7
:10045C0007F120024FF4865101F0CAFB88B06C46BC
:10046C00414B25464FF0030AC4E9053645F810AF59
:10047C003C4800232A464FF4C65101F0B9FBCD4647
:10048C00A5463A4B63613A4BA361C4F810A03548BA
:10049C0000232A464FF4C85101F0AAFBCD46354B38
:1004AC00C7E908632F48002307F120024FF4845159
:1004BC0001F09EFB304BC7E908632A48002307F183
:1004CC0020024FF4825101F093FBA5462B4B636144
:1004DC002B4BA3614FF40073A3832A4B23612A494E
:1004EC00204843462A4601F083FBCD46274C204644
:1004FC0006F07EFB70B326484FF4D01105F00EFCCD
:10050C00002827DB23484FF4803105F007FC002836
:10051C0020DB2369A5681B68AE6913F4005F14BF68
:10052C004FF000734FF080630D214FF0A072204606
:10053C00B0471949194B4B604FF400538B60EB6972
:10054C0013B101222046984700214FF0967005F018
:10055C0063F9F9E72837BD46BDE8F0873071000034
:10056C005E7300008C7000007B73000087730000CA
:10057C00F6730000A8730000C8730000E673000057
:10058C00E973000003000001C01CD000106F0000D4
:10059C00487100005071000000070020B1030000FA
:1005AC002DE9F04F91B08407009302F004030293FD
:1005BC00C2F3C20303F10103DDF868800392054620
:1005CC000E46059340F0BE81041D30B1072909D8B1
:1005DC006FF01B0011B0BDE8F08F01F00706341D61
:1005EC00C6F10806009B4FF00009591E4FF0040A93
:1005FC004FF0FF330193CDF810904F46CB46534646
:10060C000DB1009A22600598002800F3EB809A48FF
:10061C00009A824203D399488242C0F0E380039A45
:10062C00A4EB050E92074FEA9E0000F106810F2FF6
:10063C0000F2B480002D00F0088107F140020DEBB0
:10064C00020C019A0CF8200C0CF8102C04980130B8
:10065C000490EAE07A2860D84B280ED847285CD85A
:10066C0029282FD8252855D057D820287DD0233895
:10067C00D0F1000B4BEB000B77E0A0F14C0CBCF174
:10068C002E0F4AD8DFE80CF07149494949494949CC
:10069C00494949494C49494949494949495A494CA7
:1006AC004C5A5A5A714C6E497149184C1849498325
:1006BC00804C49494C49800000204FF0000B4FF012
:1006CC00040A39E0A0F12A0C5FFA8CFC012202FA30
:1006DC000CFC1CEA0E0F48D11CF062502ED11CEA07
:1006EC00020B42D0013C5444CAF1000C04EA0C0445
:1006FC00002D61D0A3EB050CA444B4453FF668AFC4
:10070C00002868D1042B47D158F8043B23600434EB
:10071C0004232AE0019A013A01924FF0000B24E0E5
:10072C0011F8010C6C2834D111F8023C00206C2B10
:10073C008346C4D14FF0080A5346D3E708F10708A3
:10074C0028F007080734F8E802AB24F0070435B1A9
:10075C0006982044B0423FF63BAFC4E900AB0834E6
:10076C004FF0000B4FF0080A534611F8010F002808
:10077C0078D0BBF1000F7FF46DAF2528F5D1019B2C
:10078C00013301934FF0010B4FF0040AECE758468C
:10079C0093E700208346A5E7082B02D06FF01500E5
:1007AC0018E708F1070828F00708F8E80223C4E95D
:1007BC00002308340823D8E768B9042B02D108F1C8
:1007CC000408A4E7082BE9D108F1070828F007086A
:1007DC0008F10808EDE7059A013A059258F8042B40
:1007EC0000920DE7039A900720D5A4EB050E4FEA73
:1007FC009E004FF0010CBEF5007FCFD20F2FCDD84D
:10080C00F5B107F140020DEB020EC0B2019A0EF8E1
:10081C00200C0EF8102CBCF1000F3FF417AF60F059
:10082C007F000EF8200C09F101090137C5F108020F
:10083C00043406924FF6DA7E97E74FF0000CDAE7B5
:10084C00BCF1000F01D00136EFE702980236002808
:10085C00EBD10098CDE9063105F063FFDDE90631F7
:10086C000644E2E7631BB3F5806F97D245B9A6F156
:10087C000804E018AEE600BFB86E0000E47B000090
:10088C00029A28609B082B709DF81030C2B1EB7057
:10089C0085F80290B9F1000F05D008A80022C5F127
:1008AC00010C97420ED1C5F101030DF120084FF058
:1008BC00000A01930DF1300B574512D1601B89E6EC
:1008CC006B70E5E710F8013B190608D504EB0C0E2C
:1008DC00B64503F07F033FF67BAE04F8013B0132D3
:1008EC00DFE7B9F1000F03D098F90020002A17DBDD
:1008FC00029BD3B11AF80B2004F8012B0022019BA8
:10090C0098182044B0423FF663AE98F8000004F803
:10091C00010B00990392204605F013FF039A14442F
:10092C000AF1010A08F10108C6E798F8002055F809
:10093C0022300093029B45F82230009805F0F1FE1E
:10094C00421CDCE76FF00D0044E600BF2DE9F04FD0
:10095C0095B000AF0446D7F878B0BB61CBF3C003B9
:10096C007A623B61396251B903784678807800EB42
:10097C00830020443B6A9E421AD8031B3B6294F8C6
:10098C0002A0E3787B615646BAF1000F02D01BF04F
:10099C00010F17D17B695BBB7B6A1BB1BA69396AE2
:1009AC00204698473D6A28465437BD46BDE8F08F2F
:1009BC00451C284605F0B5FE3B6A0130013328443E
:1009CC003B62D7E794F800806368FB617B6A4FEA6F
:1009DC008802FA6004EB8808002B40F001813D6A24
:1009EC00C1460AEB080300264B454ED1D04413E018
:1009FC001BF0020FD0D094F800804FEA8803FB6004
:100A0C006368FB617B6A04EB8808002B78D13D6A34
:100A1C00BAF1000F4ED156461BF0050F0CBF022346
:100A2C0001237B627B6908EB430A0BF002033B62F8
:100A3C00D045B8D018F8021B18F8013C54F8239094
:100A4C00AC4B994502D3AC4B994539D33B69002B40
:100A5C0043D0F86905F0B2F900283ED0E9468AB0D7
:100A6C006A46A64B5361FB69C2E906314FF4007329
:100A7C001384A34B42F8103FA24800234FF41251A9
:100A8C0001F0B6F8023DCD46D2E719F8012B7B6296
:100A9C0054F8220005F045FEFA6F7B6A01303AB13A
:100AAC00D7F8802096423EBFFA6F22F81600013626
:100ABC00054499E71BF004061CBF7E6AD044ABE7E3
:100ACC003B6923B1F86905F079F90028C6D11BF010
:100ADC00010F05D17B6AED1AAAE73B6A002BA7D060
:100AEC00484605F01EFEFB6F43B1D7F880309E429E
:100AFC003FBFFA6F431C22F816300136054497E7C6
:100B0C00BAF1000F71D01BF0040671D0D14600264B
:100B1C0007F140005246414605F013FE7B695B002D
:100B2C00BB607B69D04408EB43037B610BF0020391
:100B3C007B607B6998455DD12378FB6163781BF002
:100B4C00020F06EB03020CBF4FEA590100211BF008
:100B5C00010FD2B240F09D801BF0040F14BF484629
:100B6C00002094F802B094F803803B616270A0708E
:100B7C00E170BA69F9687B6A20469847051EFFF652
:100B8C0012AFFB6923703B69637084F80380BA6908
:100B9C007B6A84F802B0494607F140009847B0F1EF
:100BAC000008C0F2A3803B6ABA697869A3EB0A011A
:100BBC00FB68C91ABB68C91A7B6A98470028C0F23F
:100BCC009780A84408EB00054FF0000B07F1300AA2
:100BDC00B34560D30021BA697B6A08469847E2E6C0
:100BEC004FF0000907F1300094E75646D14695E7DF
:100BFC00B14693E718F8021B3E4A18F8015C54F80A
:100C0C002530934202D33C4A93421CD33B6923B117
:100C1C00F86905F0D3F800288BD17B68F3B909F19A
:100C2C00280207F12800024409F1010302F8101C04
:100C3C0007F1500252FA83F309F102095FFA89F9BC
:100C4C0003F8105C75E73B692BB1F86905F0B6F851
:100C5C0000287FF46EAF1BF0010F09D006F12802BB
:100C6C0007F12801731C561806F8205CDEB260E709
:100C7C001BF0040F3FF45DAF09F1280207F12801C6
:100C8C0009F1010302EB010909F8105C5FFA83F921
:100C9C004FE7002065E71BF80A3087F82F3054F82F
:100CAC002390FB6FFBB133F81B80BA697B6A01217F
:100CBC0007F12F00984700281ADB0544B8F1000F04
:100CCC0006D1484605F02DFD00F101081FFA88F801
:100CDC00BA697B6A414648469847002808DB0544B8
:100CEC000BF1010B74E7D7F87C80DEE745465AE63A
:100CFC00054658E6B86E0000E47B0000077400005F
:100D0C0004000001AC700000014B1860704700BF7C
:100D1C000000002030B587B00025CDE90301044662
:100D2C00009503A90548059500F018F9DDE9043094
:100D3C009842B8BF255407B030BD00BF175E000005
:100D4C002DE9F047058B04462807904611D402295B
:100D5C0005F0070540F0CD80204605F08DF878B100
:100D6C000138218B042811D8DFE800F0C3106D8501
:100D7C00950001290CBF45F0100545F02005258391
:100D8C0088F31188BFF36F8FBDE8F08701F0070A75
:100D9C00AA4500F0A6800027B9463E46A368002B62
:100DAC0000F0BD8041F00801218388F31188BFF366
:100DBC006F8FA168002900F0BB800D68002900F03E
:100DCC00B780D1F80480334652462046C047002DE8
:100DDC0076D02B6829461D46F0E701F007035A1F11
:100DEC00012A1BD8002221F00701062B276889B2A3
:100DFC00C4E9002209D13B4603E0628B01326283D5
:100E0C001B68002BF9D141F002012183204605F02B
:100E1C0033F800287BD041F0200177E0042B0AD175
:100E2C0021F0070189B22183204605F025F810B185
:100E3C0041F020012183218B01F0070AAA4550D0F3
:100E4C000027B946AAE7236921F0070141F0060102
:100E5C00062DD3F8009021832DD1B9F1000F40D08D
:100E6C0041F00801218388F31188BFF36F8F3A4951
:100E7C002046C84729E021F00701236941F004010D
:100E8C0089B2042DD3F804902183E6D000273E4686
:100E9C004FF0040A82E721F00701236941F00501B4
:100EAC0089B2052DD3F808902183D6D000273E4671
:100EBC004FF0050A72E700273E464FF0060A6DE731
:100ECC002B4687E7B9F1000FD1D14FF02003EFF398
:100EDC00118883F31288BFF36F8F238B23F00803E1
:100EEC002383258BEA062ED525F01003238305F0EA
:100EFC0007056669218B002EBFF66FAF00232768AC
:100F0C00C4E9003321F0070141F001012183218B59
:100F1C0001F0070AAA454FF000097FF43FAF002FFC
:100F2C009BD041F00801218388F31188BFF36F8FA8
:100F3C00002FC7D03D68394633465246204604F050
:100F4C00C7FF2F46F4E7AB067FF51AAF25F0200359
:100F5C00238305F00705FFE6095F00002DE9F04F3C
:100F6C00814695B08B4617461C460025387808B943
:100F7C00284658E37B1C2528039306D05946C847BE
:100F8C000028C0F250830135FBE1182200210EA885
:100F9C0005F0E2FB7B78252B7DD00023781C98464E
:100FAC009E469C461E46014610F8012B2B2A00F04B
:100FBC00A18000F29880202A00F09F80232A00F064
:100FCC009F802BB19DF8403043F040038DF84030AA
:100FDC00B8F1000F05D09DF8403043F020038DF898
:100FEC004030BEF1000F05D09DF8403043F01003A7
:100FFC008DF84030BCF1000F05D09DF8403043F027
:10100C0008038DF840302EB19DF8403043F00403B6
:10101C008DF840309DF8403003F04400442803D153
:10102C006FF386138DF840309DF840302A2A43F038
:10103C0080038DF840307FD19DF8412042F00102B1
:10104C004B1C8DF841201A782E2A9DF841200CBF9C
:10105C000121002161F341028DF8412078D15A78A9
:10106C002A2A6ED0013300224FF00A0C194611F8CF
:10107C00010BA0F13006092E40F295809DF840102E
:10108C001292C1F3400040EAD2700A4660F341026A
:10109C008DF840205CE0BA1C03928DF843309DF82B
:1010AC004130DA0740F12E8154F8048BB8F1000F6F
:1010BC0007DA9DF8402042F004028DF84020C8F178
:1010CC0000085E0740F1278154F804ABBAF1000F19
:1010DC0080F226819DF841306FF341038DF8413049
:1010EC004FF0FF3A1CE12D2A0DD0302A7FF469AF66
:1010FC00012358E74FF0010C55E74FF0010E52E772
:10110C004FF001084FE701264DE70EFB0262303A23
:10111C000346184610F8016BA6F1300CBCF1090F10
:10112C00F3D999428FD09DF840101192D20F62F3EF
:10113C0041018DF8401086E70B4600224FF00A0E55
:10114C00E7E79DF8412042F004028DF8412002337C
:10115C001A786C2A47D02BD8682A31D06A2A4BD0FF
:10116C004C2A51D01A4612F8013B0392782B9DF869
:10117C0041208DF8433000F2BE806D2B51D8692B85
:10118C0000F2B980572B67D8412B03D0453B022B7B
:10119C0000F2B1809DF84230042262F302038DF814
:1011AC004230012373E00CFB0202303A0B465DE740
:1011BC00742A25D07A2AD5D19DF8412006210CE03D
:1011CC005A78682A9DF8412006D1012161F3C602A4
:1011DC008DF841200233C5E7022161F3C6028DF878
:1011EC0041200133BEE75A786C2A9DF8412001D189
:1011FC000421EBE70321F0E79DF841200521ECE702
:10120C009DF841200721E8E7BDF8402022F4F04288
:10121C0022F0020242F4804242F00202ADF8402079
:10122C00DFE76E3BD9B201238B4040F282410B4287
:10123C0037D113F0240F51D1D8075CD59DF842302B
:10124C00032161F302038DF8423002F07803A3F11D
:10125C0040014B424B411AE0A3F15801C9B20120A5
:10126C0000FA01F111F4624F94D140F601063142BB
:10127C001DD111F4043F3ED09DF8423060F30203BF
:10128C0002F07802402A8DF8423034D000239DF8C9
:10129C004020C2F340010B4363F341028DF8402020
:1012AC00FDE69DF84230022161F30203E8E79DF868
:1012BC004210022002F0780260F30201402A8DF8FD
:1012CC00421002BF9DF8401041F001018DF8401012
:1012DC00632BDBD1131E18BF0123D8E79DF84230D6
:1012EC00032161F3020312F0780F8DF8423014BF22
:1012FC0001230023CBE79DF8403043F001038DF828
:10130C004030C3E79DF94020002AB4BFDDF844808B
:10131C004FF0FF38D5E698077FF5E2AEDDF848A030
:10132C009DF841100023CDE911339DF8423003F0B4
:10133C000703012BC1F3C30133D1CB1E042B04D8FB
:10134C00DFE803F0214646212100236801294FEAFA
:10135C00E372CDE90E321CD19DF93830DA17CDE9A4
:10136C000E3204349DF8403013F0030650D0039B2A
:10137C003A465946484604F09EFE0028C0F2538176
:10138C000544039FF2E554F8043BDA17CDE90E321D
:10139C00E8E70229E5D11AB243F3C033CDE90E23B5
:1013AC00DFE7022B24D1CB1E042B04D8DFE803F09B
:1013BC00181010181800012954F8043B4FF00002C3
:1013CC0014D00229CDE90E32CCD19BB20E93C9E7D1
:1013DC00073424F00704F4E80223CDE90E23C1E717
:1013EC0054F8043B0E9300230F93BBE7DBB2CDE71D
:1013FC00042B08D1073424F00704D4E90023083463
:10140C00CDE90E23AEE7032BACD154F8043BDDE75A
:10141C009DF843007828B4D862281CD825283FF4BE
:10142C00ADAD5828ADD10DF136030093DDE90E01B9
:10143C0008AB10AA04F0F9FDBAF1000F074680F2D0
:10144C009A80002F9DD00DF13603D81B002E00F092
:10145C00C1800130BEE06338152892D801A252F841
:10146C0020F000BF45150000571500008F13000039
:10147C008F1300008F1300008F130000571500000E
:10148C008F1300008F1300008F1300008F130000C8
:10149C00E51500007D150000A31500008F1300005A
:1014AC008F130000C91400008F1300007D1500007D
:1014BC008F1300008F1300007D150000BAF1000F90
:1014CC000E9F35DB5146384605F032F907EB000A22
:1014DC00002F3FF456AF00269DF8423013F0100257
:1014EC00059200F0938002305B06119A48BF129B64
:1014FC000492104448BFC018B8F1000F40F3A0800C
:10150C009DF84020A8EB0008C2F380035007069317
:10151C0000F19680510640F189803EB15946304623
:10152C00C84700287FDB069B01351E4630227EE033
:10153C00384605F0F6F8C9E70E9B8DF820300026EA
:10154C0008AF0DF1210A0120C6E719075CBFC3F3F0
:10155C0000135E01DDE90E2348BF2B26002BBFF6DE
:10156C0062AF524263EB4303CDE90E232D265AE7BB
:10157C00002658E700269DF840200DF13603DB1BB2
:10158C006FF386129A458DF840207FF65AAFAAEB7E
:10159C000303119355E70E9890B30DF136030093A6
:1015AC0010AA08AB002104F040FDBDF8423003F056
:1015BC00EF0343F4F04343F01003BAF1000F074676
:1015CC00ADF84230D6DA00283FF4DBAE0DF136032D
:1015DC00181A00269A467FE70E9B07293FF6D1AED4
:1015EC00DFE801F00C04060C08080C0C1D70C8E6B2
:1015FC001D80C6E6EA17C3E90052C2E61D60C0E6CC
:10160C002E4F064607F1050A052065E71A0748BF65
:10161C00013069E70793104606925946C8470028DF
:10162C00DDE9062304DA15B0BDE8F08F202243462D
:10163C001946002903F1FF33ECDC45446D1A98463A
:10164C002EB159463046C8470028ECDB01359DF8D1
:10165C004230DA0601D41B0705D559463020C8475D
:10166C000028E0DB0135059B33B19DF8430059465A
:10167C00C8470028D7DB0135049E2E4405E05946A7
:10168C003020C8470028CEDB0135731B002BF6DC5D
:10169C0053463A465946484604F00DFD0028C2DB35
:1016AC000544A844A8EB0503002B7FF76AAE594606
:1016BC002020C8470028B6DB0135F3E7BB740000D7
:1016CC0002F064BC2DE9F047DFF858800446074669
:1016DC004FF0010914B93846BDE8F08794FAA4F527
:1016EC00B5FA85F509FA05F32E0108EB05156FEA35
:1016FC00030A24EA03042B7B002BEBD058F80630AA
:10170C001B694BB94644042273682846196807EADA
:10171C000A0700F059FADDE7284698470028D9D186
:10172C00F0E700BF0471000030B51049104889B0D3
:10173C00002205F08DFB0F4D0F4900220023CDE94F
:10174C00062300240E23CDE90334CDE901440B4BD1
:10175C0000944FF44072284603F0FAFB08492846DF
:10176C0005F05BFA204609B030BD00BF91170000B0
:10177C008805002000010020400D0020811A000087
:10178C00C1740000014803F03DBD00BFEC00002017
:10179C002DE9F04780461F480F4604F00CFF064623
:1017AC00002830D000252846BDE8F087237B73B194
:1017BC002368DB680BB12046984723681B69D3B9B3
:1017CC00636804221968204600F0FEF901361034D3
:1017DC004C45EBD3B8F1000FE5D0002DE2D02846F4
:1017EC00FFF770FF0546002FF7D000214FF4A470CF
:1017FC0004F012F8F1E7204698470028E0D00AFAE6
:10180C0006F31D43E2E7044CDFF8109005464FF059
:10181C00010ADDE71C0700200471000024710000A0
:10182C00014B53F8200070476C71000008B503465B
:10183C0008462BB1044A136000F078FC002008BD68
:10184C006FF01500FBE700BF0400002010B5044C3E
:10185C00237813B9034803F0D5FC0123237010BD82
:10186C00EC080020EC00002010B50446084804F0F9
:10187C00A2FE5CB1BFF35B8F064B53E8001F01392E
:10188C0043E80012002AF8D1BFF35B8F10BD00BFF4
:10189C0014070020180700200020064BBFF35B8FB5
:1018AC00014653E8000F43E80012002AF9D1BFF3B8
:1018BC005B8F70471407002070B5FFF7EDFF084CE5
:1018CC00084E0546B44200D370BD63685B792BB1FA
:1018DC0023685B6813B12946204698471034F1E71A
:1018EC00047100002471000010B5044C044920461A
:1018FC0004F0F2FC034B1C6010BD00BF9C000020E8
:10190C00587100000C070020084A094808B500234C
:10191C001370084A1360084A4FF400411360FFF734
:10192C0085FFBDE80840FFF7DFBF00BFED080020D2
:10193C00BF65000014070020180700200146002294
:10194C000148002304F0E9BC9C000020014804F08D
:10195C0082BD00BF9C000020024B0146186804F0B9
:10196C00CCBD00BF0C070020014804F002BE00BF34
:10197C009C00002070B5284B187800284BD0FFF73E
:10198C00E5FF054690B1BFF35B8F244B53E8001F76
:10199C00013943E80012002AF8D1BFF35B8F204CC9
:1019AC00204EB4422DD32846FFF7D6FF1E4B1F4CBA
:1019BC001B68002B19DD05F045FA4FF47A72A0FB79
:1019CC00020302FB0131C30BD4E9002043EA41437B
:1019DC009B1A4FEAD13140F2E93261EB000193429C
:1019EC0071F1000101D3FFF767FFD4E9003213F561
:1019FC007A7342F10002C4E90032BDE87040FFF78F
:101A0C00B3BF63685B7923B1236829461B68204602
:101A1C0098471034C5E770BDEC080020180700206B
:101A2C0004710000247100001407002080050020C0
:101A3C0070B50D4D297861B90120FFF7A9FE0B4C4B
:101A4C000B4EB44206D3FFF795FF0028FBD10123C0
:101A5C002B7070BD63685B791BB1236820469B6853
:101A6C0098471034EDE700BFED080020047100002A
:101A7C002471000000212DE9F0470846FFF788FE8D
:101A8C00044648B340F267684FF0000903F0DEFEED
:101A9C001A4B186030B11A4B1B68092B02DD194820
:101AAC0003F0B0FB184FDFF85CA0002544B12046D2
:101ABC00FFF708FE044618B94FF0FF384FF0FF3916
:101ACC00FFF758FF064628B9B5B942464B46504673
:101ADC0003F0B8FB3546E9E74FF0FF384FF0FF391C
:101AEC00D4E72B689B691BB1002211462846984706
:101AFC001035BD42F5D3E8E7044DFAE71007002096
:101B0C0018070020EC000020247100000471000074
:101B1C0013B5184804F04FFD174B1B787BB14FF0F1
:101B2C002003EFF3118483F31288BFF36F8FFFF759
:101B3C0021FF84F31188BFF36F8F02B010BD0F4BE0
:101B4C001B68002BF9D050B900220023CDE90023EB
:101B5C000B484FF40042002304F0AAF8EDE70A28E2
:101B6C00EBD1074805F080F9064802B0BDE81040FB
:101B7C0003F048BB18070020ED08002010070020D8
:101B8C0088050020EC00002010B5064B1B680446AD
:101B9C0098472146A060044804F03DFCBDE8104085
:101BAC00FFF7B6BF040000209C000020044A054B40
:101BBC009B1AB1EBD30F34BF52F8310000207047A1
:101BCC008C70000004710000084BC31A10B41B1178
:101BDC0044680133237143689A7143681960436800
:101BEC0001225A7110BCFFF731BE00BF0471000016
:101BFC002DE9F04F8FB004AFC1F34A28B8600D4601
:101C0C0091467B600C0DB8F1000F63D0002607F1F4
:101C1C0014034FF0040B4FF00A0AC7F80C80C7E905
:101C2C0007667E620193CDF808B0CDF800A007F1ED
:101C3C001C03F96832464846FEF788FEB0F5006F83
:101C4C0003461CD36C468AB0D9F8041004AB264862
:101C5C00C3E9050140F2FF71D9611A464FF40071D6
:101C6C001984224B42F8103F214833464FF412514D
:101C7C00FFF7BEFFA5462C37BD46BDE8F08FC0F37D
:101C8C000A0804F11700184420F0070080083B6094
:101C9C00FFF754FE68F35325044690B13B68154A90
:101CAC00C7E9083600F1100107F11403F961CDE919
:101CBC0000A3CDF808B0F96807F11C034846FEF7FD
:101CCC0045FE68F353257B68B9682A46204604F024
:101CDC00A8FCD0E704F1170020F007008008FFF7FC
:101CEC002DFE0446EDE700BFD67400000400000191
:101CFC00C4700000036600002DE9F04F87B0DDE9E9
:101D0C001269DDE9105A04460F4693469846A6B36D
:101D1C001021CDF80090334652460020CDF8149097
:101D2C00FEF73EFC014605F117000844144B0391E5
:101D3C0004F007040BF0070BE40020F0070003EAA3
:101D4C00412344EA8B1480081C43FFF7F7FD44EA57
:101D5C000554054640B13EB10399CDF80090334689
:101D6C0052461030FEF71CFC4346224639462846A4
:101D7C0007B0BDE8F04F04F054BC3146D3E700BFC8
:101D8C0000FE0F000EB403B503AB014653F8042B51
:101D9C000448019304F06BFC02B05DF804EB03B053
:101DAC00704700BFA3660000CA0605D48B064CBF63
:101DBC0002490349FFF7E6BF704700BF16750000E4
:101DCC00157500002DE9F04F89B09B469DF8483001
:101DDC000493DDE913930593049B0692DDE91576D4
:101DEC0004460D46002B00F0878006F0080307938D
:101DFC0004F0FFFB06F0020A024600284BD086498D
:101E0C002046FFF7BFFF8046BAF1000F08D016F04E
:101E1C00440F42D181492A462046FFF7B3FF804444
:101E2C0006F001035BB17E4B049A7E4953F82220E5
:101E3C007D4B2046002A08BF1A46FFF7A3FF06F089
:101E4C000803002B55D0794B049A794953F822207A
:101E5C002046FFF797FF0546069B2BB175491A469E
:101E6C002046FFF78FFF0544BBF1000F05D07249E8
:101E7C005A462046FFF786FF05444544B9F1000F4A
:101E8C0049D1002F4FD1F30700F1C08031462046D5
:101E9C00FFF78AFFB4E08046B6E7684B1868002865
:101EAC00BDD0674B4FF47A7E1B68B5FBF3F54FF44E
:101EBC006162B5FBF0F300FB1355B3FBF2FA0EFBBA
:101ECC0005F502FB1A323C21B5FBF0FCB2FBF1F339
:101EDC0000FB1C5501FB13220EFB05F50092B5FB14
:101EEC00F0F55849CDE901C552462046FFF74AFFA7
:101EFC0095E706F00805AFE7BBF1010F06D1B9F184
:101F0C00000F64D1002F7BD000250CE0B9F1000F3D
:101F1C00F8D04D485CE04D484D494B46224603F005
:101F2C001CFF002F68D0DFF82C91DFF82CA1102FAC
:101F3C0031462046B84628BF4FF01008FFF734FF53
:101F4C004FF0000B5D4545DC059B51461A78204649
:101F5C00FFF718FF4FF0010B1BF0070F03D1494699
:101F6C002046FFF70FFFD8453BD9059B514613F888
:101F7C000B202046FFF706FF0BF1010BBBF1100FF6
:101F8C00EAD1364920464FF0000BFFF7FBFE5A46CC
:101F9C00059B9A5CA2F120015F2928BF2E223049B3
:101FAC002046FFF7EFFE0BF1010BBBF1100F1DD01C
:101FBC001BF0070F03D149462046FFF7E3FED84537
:101FCC005A46E5D849462046FFF7DCFEEBE71F48AA
:101FDC00049DA1E749462046FFF7D4FE0BF1010B07
:101FEC00B0E720492046FFF7CDFEC5E7059BB7EBD0
:101FFC000807434405939AD1049B002B7FF443AF0D
:10200C00204609B0BDE8F04F04F038BB064A05493C
:10201C002046FFF7B7FE39E71D750000217500005B
:10202C007C710000E67300001875000090710000D0
:10203C00467500004C750000507500002407002008
:10204C00200700202A750000D9660000A366000056
:10205C007B6600005D750000557500005F75000023
:10206C00617500005B7500002DE9F0410F884B682D
:10207C008E6886B005460C469046C7F382175BB156
:10208C00134A9B1A43F3CF0100291FDB2078C0F3BE
:10209C00C200FFF78BFD03462146608851F8102BD8
:1020AC000097C2F34A22002A01EB0204C0F30B1082
:1020BC0008BF0021CDE90308CDE901140022314607
:1020CC002846FFF77FFE06B0BDE8F0810023E3E76A
:1020DC008C70000073B542F20F738B4228BF0B4615
:1020EC0005680F4A04460521684603F0AEFE636896
:1020FC000C495B6806460B22284604F0ABFA636871
:10210C003246694628465B6804F0A4FA63680649BF
:10211C005B681B22284604F09DFA02B070BD00BF1C
:10212C00267B00008075000064750000074A0021C2
:10213C000123904206D8064A01B901231360054BCE
:10214C001860704740085B000121F2E740420F0025
:10215C002007002024070020014B01221A70704731
:10216C00EE080020014B0020196070473C0700204E
:10217C00024B034801221A7004F080BAEF080020C9
:10218C00C07100000148FFF7A5BF00BFC07100007F
:10219C0010B5064B18680C46FFF742FB2146034668
:1021AC00BDE8104002480F22184700BF3C07002032
:1021BC00C071000010B9074B18707047064B1B78A4
:1021CC001BB141F2883004F03FBEA420002103F083
:1021DC0023BB00BFEE080020EF0800202DE9F843D8
:1021EC00DFF874901D4F80460E46042499F8005079
:1021FC0095B902F0FBFC28463246414602F0A4FC9D
:10220C00054602F0FDFCE5B101233B7099F8003066
:10221C0073B93046BDE8F88332464146002002F0DF
:10222C0093FC0546EFE72046FFF7C4FF651E2C46DE
:10223C00002002F0D1FC0028EBD03B78002BF2D12F
:10224C00E7E73B78002BE4D0013C2046FFF7B2FFD8
:10225C003B78002BCAD1DCE7EF080020EE08002009
:10226C00014B00201960704754070020024B0348B3
:10227C0001221A7004F002BA01090020EC7100006E
:10228C000148FFF727BF00BFEC71000010B5064BEB
:10229C0018680C46FFF7C4FA21460346BDE8104007
:1022AC0002480F22184700BF54070020EC710000B1
:1022BC00F8B5074F0D4604464618B44201D12846DE
:1022CC00F8BD14F8011BBB6801485B689847F4E73C
:1022DC00286F00002DE9F84305464FF02003EFF37B
:1022EC00118683F31288BFF36F8F0E4B0E4F1C6851
:1022FC00DFF838804FF00C092CB986F31188BFF346
:10230C006F8FBDE8F883D4E90123002D18BF134665
:10231C002BB198F8102009FB02F2B85C984724689E
:10232C00EAE700BF7007002064070020B80800200F
:10233C0070B5194B1C7CBFF35B8F04F01F0301229B
:10234C009A40164B610903EB8103D04353E8001FFD
:10235C0001EA000543E80056002EF7D1BFF35B8F6E
:10236C000A4213D00E4B0F4D8BB10C236343EA186A
:10237C00E85C517804F008FA0020FFF7ABFF0C235F
:10238C005C432A1900232B51C2E9013370BD83F33E
:10239C001188BFF36F8FEFE7B80800207807002093
:1023AC0095670000640700202DE9F041354B074686
:1023BC001D7C4FF02003EFF3118883F31288BFF3D9
:1023CC006F8F0C24304B314E6C431A19195D002958
:1023DC004CD007CA06EB040C8CE8070000221A55F7
:1023EC0088F31188BFF36F8F0C236B43F218F05CEA
:1023FC00002839D07B1C10D0D2F808C0244C254AB8
:10240C004FF400400021ECFB004100232046FDF777
:10241C005FFE0121381A01F04BFD03F043F9012056
:10242C00FFF758FFBFF35B8F1B4B6A0903EB82036B
:10243C0005F01F0101228A4053E8000F104343E8C6
:10244C0000010029F8D1BFF35B8F144B3BB10C2377
:10245C0003FB05F03318305C597804F089F9FFF769
:10246C0067FF03F033F90120BDE8F08101462846EF
:10247C0000F016F80028B3D007C8344484E80700ED
:10248C00AEE700BFB8080020580700206407002002
:10249C003F420F0040420F00780700207D6700008C
:1024AC002DE9F04F85B00E4603A900F043F81E4B02
:1024BC00039DD3F800A0DFF87480431E1BB203EB1E
:1024CC004303044605EB83054FF400474FF0000B24
:1024DC0024B9A146484605B0BDE8F08F6868144A97
:1024EC00C4465946E0FB07C100236046FDF7F0FDEA
:1024FC000190A8680E4AC4465946E0FB07C1002368
:10250C006046FDF7E5FDBAF1FF3FA94601D08245D3
:10251C0005D9731CDED0019B1844B042DAD9013CBA
:10252C00A4B20C3DD4E700BF080000203F420F00CE
:10253C0040420F0008B9024B0B600020704700BFEF
:10254C00FC710000014910220A60704710ED00E098
:10255C0072B6404080F31188BFF36F8FBFF34F8F7B
:10256C0030BF62B6BFF36F8F704700BF72B6494081
:10257C0081F31188BFF34F8F20BF80F3118862B6AF
:10258C00704700BF2DE9F047814600AF0C4600298B
:10259C004CD06E468AB0D1E90012A3686D4627482C
:1025AC00A8464FF0050AC5E90501C5E9072348F817
:1025BC0010AF2348424600234FF42151FFF718FB7C
:1025CC00B546D4E903126369AD461E48C5F810A0A0
:1025DC00C5E90501C5E907231948002342464FF414
:1025EC002151FFF705FBB54688B0E3696D46164AE5
:1025FC00A8464FF0030AC5E9052348F810AF104868
:10260C00002342464FF4C251FFF7F2FAB546A369D4
:10261C00AD460E4AC5F810A0C5E9052308480023AD
:10262C0042464FF4C251FFF7E3FAB54621464846FD
:10263C0002F0ECFABD46BDE8F08700BFD97500008A
:10264C00E470000008760000377600004676000043
:10265C0040B2002807DB044A4109012300F01F00A7
:10266C00834042F82130704700E100E0054B4209FD
:10267C0000F01F0053F82220012303FA00F0104051
:10268C00704700BF00E100E040B20028A8BF00F195
:10269C00604001F10101B8BF064B4FEA4111ACBFDC
:1026AC0000F5614000F00F00C9B2B4BF195480F8B6
:1026BC000013704714ED00E030BFFFF7FDBF00BF03
:1026CC000B4A08B50B4B22F07F029A60BFF34F8F79
:1026DC00BFF36F8FD3F8882022F47002C3F88820E0
:1026EC0002F050FB03F018F900F0D6FB02F08EFB61
:1026FC000000000000ED00E0094A0A4993680968EF
:10270C009967094958674B6843F080534B60002325
:10271C0083F31188BFF36F8F9368986F704700BF76
:10272C00B8080020E472000000ED00E012498A684D
:10273C004FF030001044EFF3098C80E8F01F20209C
:10274C0080F31288BFF36F8F0C4F4FF000668A69CD
:10275C008A603E60506F0023536780F3118804B584
:10276C00104600F035FCBDE8044002F1300090E862
:10277C00F01F8CF309887047B808002004ED00E0C6
:10278C001EF0040F0CBFEFF30880EFF30980816992
:10279C0011F8021C0229FFD001B503F0A6FF01BD00
:1027AC0042F8203C009B42F81C3C0A49019B42F831
:1027BC00183C029B42F8143C21F001014FF080734D
:1027CC0042F8043C42F8081C0023203A0265436797
:1027DC00704700BF715E0000094A0346906870B1F3
:1027EC0013F1160F406E05D0A0F140029A4205D8A5
:1027FC00834203D2814228BF0020704700207047DB
:10280C00B808002008B5094B0D461446986000F036
:10281C00DFFB204685F30988002163B681F311881C
:10282C00BFF36F8F0022002303F01CFBB8080020BD
:10283C0001B572B60B4A506900281EBF00215161C8
:10284C0004F0F0F962B6EFF30580A0F110004FEA46
:10285C00C0000549014409C99847BDE80140034936
:10286C0008470000B8080020406F00007D280000D9
:10287C00044B99689869884203D003494FF0805201
:10288C000A607047B808002004ED00E02DE9F04123
:10289C0086B0064600AF0D46474B7B6102244FF4D1
:1028AC00825146483C6107F1100203F02DFF444B66
:1028BC009B6AD9046DD5434B4048C7E9044307F1E3
:1028CC0010024FF4825103F01FFF17203C4B9B6A00
:1028DC001A050BD53C4B7B61022338483B6107F151
:1028EC0010024FF4825103F00FFF1820344CA36AEE
:1028FC009B0523D5E846354B7B6102232F483B6172
:10290C0007F110024FF4825103F0FEFEA36BA26A92
:10291C00100412D588B06A462D492848C2E905131F
:10292C00032342F8103F4FF4C25103F0EDFEC546AD
:10293C001EB1A36A23F40043A3621920204B9B6AA7
:10294C0059050BD5234B7B6102231C483B6107F1D6
:10295C0010024FF4825103F0D7FE1A20184B9A6ADA
:10296C00D20518D51C4B7B61022314483B6107F13F
:10297C0010024FF4825103F0C7FE1B20104A936AD9
:10298C0043F47F439362183700232B70BD46BDE898
:10299C00F08116209AE79B6A9B04EFD50F4B7B6165
:1029AC00022306483B6107F110024FF4825103F0F9
:1029BC00ABFE1C20E2E700BF74760000E470000060
:1029CC0000ED00E08A7600009B760000AE760000F9
:1029DC00C7760000DC760000F77600000F77000069
:1029EC0010B586B0364B3748059304AA02244FF431
:1029FC008251049403F088FE334B9B6A9A015DD597
:102A0C00324B304804AA4FF48251CDE9044303F011
:102A1C007BFE1E202C4B9B6ADB010AD52C4B2948D4
:102A2C00059304AA02234FF48251049303F06CFE25
:102A3C001F20254B9B6A1C030AD5264B2148059366
:102A4C0004AA02234FF48251049303F05DFE21206B
:102A5C001D4B9B6A59030AD51F4B1A48059304AAB0
:102A6C0002234FF48251049303F04EFE2220164BA6
:102A7C009B6A9A030AD5194B1248059304AA0223A0
:102A8C004FF48251049303F03FFE23200E4B9B6ABC
:102A9C00DB030AD5124B0B48059304AA02234FF40F
:102AAC008251049303F030FE2420074A936A6FEAA4
:102ABC0003436FEA1343936206B010BD1D20A9E7D0
:102ACC003E770000E470000000ED00E05677000057
:102ADC006977000083770000A1770000C6770000BB
:102AEC00E07700002DE9F04786B0814600AF8A46BA
:102AFC009046514B7B61022450483C6107F1100217
:102B0C004FF4825103F000FE4D4B9B6ADE0645D517
:102B1C004C4B4A48C7E9044307F110024FF4825169
:102B2C00112403F0F1FD464B9B6A1D070BD5464B58
:102B3C007B61022341483B6107F110024FF4825143
:102B4C00122403F0E1FD3E4DAB6A980728D56C4684
:102B5C003E4B7B6102233B614FF48251374807F1B6
:102B6C00100203F0D1FD6E6BAB6A190660D588B00C
:102B7C006A46374B3148C2E90536032342F8103F09
:102B8C004FF4C25103F0C0FDA546BAF1000F03D0BB
:102B9C00AB6A23F08003AB62132403E01024C2E77A
:102BAC006FF01506264B9B6ADA070BD5294B7B6118
:102BBC00022322483B6107F110024FF48251142486
:102BCC0003F0A2FD1E4B9B6A9B060BD5224B7B612F
:102BDC0002231A483B6107F110024FF4825115246D
:102BEC0003F092FD164B9A6AD50602D49A6A9007A6
:102BFC000AD55B68190507D549463046FFF7ECFD49
:102C0C0010B180F3098802240D4B9A6A920642BFD8
:102C1C005A6A22F400525A629A6A42F0FF029A628D
:102C2C0020460023183788F80030BD46BDE8F087F1
:102C3C006FF01506B0E700BF0B780000E4700000E1
:102C4C0000ED00E0217800009B7600005478000035
:102C5C006C780000827800000F7700002DE9F043BB
:102C6C00774B8BB0D3F8048000AF0546C8F308044B
:102C7C00002686F31188BFF36F8F02F07F43B3F108
:102C8C007F4F0ED102F00C03082B19D16D4BFB6159
:102C9C0002236D48BB6107F118024FF4825103F017
:102CAC0033FD002635460023FB71E31E092B00F291
:102CBC00A680DFE803F00A999C95A4A4A4A4A49F81
:102CCC0010074CBF0D460126EDE7E9465F4BFB6153
:102CDC004FF0020807F118025B48C7F818804FF450
:102CEC00825103F011FD0023554CFB71E36A9A07E6
:102CFC000BD5574BC7E90683534807F118024FF41D
:102D0C00825103F001FD002441E0E36A002B01DA5B
:102D1C00504BEFE7E36A5B00F5D54F4B4A48C7E9E8
:102D2C00068307F118024FF4825103F0EDFC63693E
:102D3C00AA6943F480736361BFF34F8FBFF36F8F46
:102D4C00636932F8022C23F480736361BFF34F8FF5
:102D5C00BFF36F8F4DF602739A4208D0A36ADBB2B1
:102D6C008BB3FA1D01212846FFF7BCFE3AE088B070
:102D7C002B686A4639493448C2E90513032342F8E3
:102D8C00103F4FF4C25103F0BFFC2C68CD46FB79C9
:102D9C00ABB92022294607F1080003F0D2FC7B6A6C
:102DAC00002E47D0C3F3080222B96FEA53236FEA0F
:102DBC0043237B6207F108012046FFF7E3FB2C3726
:102DCC00BD46BDE8F083A36A13F47F4F04D0F91D10
:102DDC000120FFF75BFD05E0A36AB3F5803F92D3BA
:102DEC00FFF7FEFD0446D2E7FA1D0021BBE7F91DF3
:102DFC000020EEE71A4BFB610223BB617CE7194A0A
:102E0C00194B18F4F87FE8468AB018BF13466A4687
:102E1C0016490D48C2E905134FF400731384103C96
:102E2C00134BD4614FF4115142F8103F03F06CFC7A
:102E3C00C54668E723F4FF7323F00103B9E700BF2D
:102E4C0000ED00E0CF780000E4700000FA7800009C
:102E5C001179000032790000407900005F790000A0
:102E6C007B790000B6780000A17800009F79000003
:102E7C0004000001024A536943F010035361704788
:102E8C0000ED00E0EFF30880EFF3098101B5724625
:102E9C00FFF7E4FE01BD00BF044800232021C21847
:102EAC000133272B82F80013F9D1704700E100E0C1
:102EBC00002080F31488BFF36F8FFEF701FC002015
:102ECC000D490860BFF34F8F0C4880F3088800F061
:102EDC002BF8202080F3118809484FF40461401826
:102EEC0080F30988EFF314800221084380F31488DF
:102EFC00BFF36F8FFFF7E4FB94ED00E0401E002062
:102F0C00801000200749D1F890200023C2F307223B
:102F1C001846934200DB7047C1F89830C1F8A00006
:102F2C000133F6E700ED00E008B572B6002383F339
:102F3C001388FFF7E7FF144B4FF0FF32C3F88020E4
:102F4C00C3F88420C3F88820C3F88C20C3F89020E1
:102F5C00C3F89420C3F89820C3F89C20C3F88021B0
:102F6C00C3F88421C3F88821C3F88C21C3F89021BD
:102F7C00C3F89421C3F89821C3F89C2162B6BFF31F
:102F8C004F8FBFF36F8F08BD00E100E0084B9B68CB
:102F9C0083420BD1EFF3058343B1064B5A6842F0E1
:102FAC0080525A605A6A22F400425A6202F054BCAF
:102FBC00B808002000ED00E0024B034A0348012151
:102FCC0000F092B80000012000000020FC7100000D
:102FDC00426E054B403A1A60044A4021C3E9011283
:102FEC001846012100F08AB87C07002000000B1560
:102FFC002DE9F041DFF8B4E09C4600AF1546002304
:10300C008B421ADA4468002C4DD0BCF1000F1DD055
:10301C00661E344215D06C4688B06A462449C2E913
:10302C000513032342F8103F224800234FF4C251EA
:10303C00FEF7DEFD6FF01505A5462846BD46BDE83A
:10304C00F0811F2CE7D902681642E4D1202C0268CB
:10305C0086685FFA85F814D9B4F1004F13D8013C97
:10306C00B4FA84F4C4F11F046400B8F1070F46EA03
:10307C0004060AD96C4688B06A460F4BC2E905357E
:10308C00CFE70824F1E73E24EFE722F01F022A43A2
:10309C0042F0100246F00106CEF89850CEF89C2073
:1030AC000135CEF8A06001330C30A9E700ED00E04B
:1030BC00B6790000DC700000D9790000044B0522C1
:1030CC00C3F89420BFF34F8FBFF36F8F704700BFCF
:1030DC0000ED00E0BFF35F8F024B0022C3F8942099
:1030EC00704700BF00ED00E010B5034C01232278BF
:1030FC00FFF77EFF207010BD0209002008B5094AB9
:10310C0000231278FFF774FF10F1160F03D0064B53
:10311C000022072800DD08BDC3F89800C3F8A020E2
:10312C000130F6E70209002000ED00E014490868C0
:10313C00082810B521D8FFF7CDFF124C49680022A2
:10314C00904201F10C0105D10F4B1870FFF7B6FF3F
:10315C00002010BDC4F8982051F80C3C23F01F033C
:10316C00134343F01003C4F89C3051F8043C43F073
:10317C000103C4F8A0300132E2E74FF0FF30E8E77A
:10318C000872000000ED00E002090020014B1860FD
:10319C00704700BF0C0000204FF02003EFF31182AA
:1031AC0083F31288BFF36F8F06490123C1F84035B2
:1031BC004FF08041C1F8783582F31188BFF36F8FDF
:1031CC000020704700E001404FF08043C0B2C3F8CC
:1031DC001C05BFF34F8F0549054BCA6802F4E0622A
:1031EC001343CB60BFF34F8F00BFFDE700ED00E052
:1031FC000400FA0520B1034B800143F0010318478A
:10320C00704700BF40710000084B70B5C31A0D46E3
:10321C0007499B10044659430648402203F0D6FA4E
:10322C002B4601462046BDE8704018479C070020FD
:10323C00B76DDBB6F86E000073B50C4C0C4A40232E
:10324C00041B00930D460B460A49A4106143064625
:10325C00094803F0E7FA011E05DA30462B4602B0A6
:10326C00BDE87040184702B070BD00BF9C0700203D
:10327C009B680000B76DDBB6F86E000010B54FF020
:10328C002003EFF3118483F31288BFF36F8F074A87
:10329C00136823F00201DB07116002D4012003F054
:1032AC008FFC84F31188BFF36F8F10BDEC070020E7
:1032BC00002270B5012104461046FFF7E5F90F48CE
:1032CC0001F044F80E4B984215D103F06CFC2669C2
:1032DC000C49304602F020FE00280BDB012535643A
:1032EC002469084904F11C0002F016FE002801DBD9
:1032FC00E564002070BD6FF00400FBE7493300006B
:10330C000000AD0B2872000070B501460C23094873
:10331C004B43C418D4E90E56403300221844A26320
:10332C0003F041FA2DB132462B460348BDE87040FC
:10333C00184770BD9C070020F86E000010B10128E2
:10334C0004D07047034B1B6C5B0701D1FFF7DCBF4C
:10335C00704700BF9C07002008B54FF02003EFF327
:10336C00118183F31288BFF36F8F124A136843F0F5
:10337C0002001060DA0708D481F31188BFF36F8F55
:10338C000120BDE8084000F0F1BF4FF08043D3F8B6
:10339C000C24D3F80C34D307EED5074803F003FA0A
:1033AC0081F31188BFF36F8F0020BDE80840FFF751
:1033BC00ABBF00BFEC070020DC0700201FB50022CC
:1033CC000123CDE90223094ACDF800D06B46CDF894
:1033DC0004D003F055FA002805DB4FF4804200239B
:1033EC00684601F02FFF05B05DF804FBB3680000E0
:1033FC0010B5074C23782BB94FF4A57003F024FDBE
:10340C0001232370BDE81040002000F0AFBF00BFC7
:10341C00030900202DE9F0413849BFF35B8F0746C3
:10342C00012251E8003F41E800200028F9D1BFF308
:10343C005B8F33B9324933484B60CB608A6002F002
:10344C007EFD7B1E012B2BD8012F07D14FF0804323
:10345C00D3F81C3403F00303012B21D003F0D7FB6A
:10346C000546F8B9284B1B78E3B14FF08043022294
:10347C00C3F808230646DFF894804FF08044D4F854
:10348C001834D4F81824D20316D503F00303012BF7
:10349C0001D0012F10D15DB386F31188BFF36F8F6C
:1034AC00BDE8F0814FF02003EFF3118683F312880F
:1034BC00BFF36F8F0125DEE7ADB13046FFF756F84D
:1034CC00D4F81835002BDAD1D4F80421002AD6D040
:1034DC00C4F80431D4F804310123C4F81835C8F801
:1034EC008031A360CBE70021212002F095F9E7E7BA
:1034FC004FF080430222C3F80423D1E79807002041
:10350C0088070020B8070020160D002000E100E01D
:10351C0008B5074803F06CFB38B10648FFF736FED8
:10352C000448FDF7F1FB002008BD6FF01200FBE72B
:10353C00286F0000453500000A2838B5074D0446B1
:10354C0004D1AB680D215B6828469847AB680348EB
:10355C005B68E1B29847204638BD00BF286F000079
:10356C0030B54068057B01F01F04B2F5001F85B033
:10357C0044EA451405D1204601F0BCF9002005B001
:10358C0030BD0025B2F5800FCDE9025514D1B3F151
:10359C00007F0CBF042305238DF808300023194647
:1035AC0002AA204600F0DCFF1D4B984235D10121C8
:1035BC00204601F05BF9E1E7B3F1C06F22D0B3F123
:1035CC00007F14BF012302238DF808308368CB40A1
:1035DC00D907E3D4B2F1A07FE0D104F01F0303F5C7
:1035EC00E0734FF0A04252F82330DB07D6D40DF134
:1035FC0007052946204601F0E5F80A4B984203D00E
:10360C000395CBE70323DFE7284601F029F9044BA8
:10361C009842F5D06FF00B00B1E76FF01500AEE7F4
:10362C000000AD0B0400AD0B10B501F009F9044618
:10363C0068B901F0DDF8084B98420AD107482146D9
:10364C0001F0BAF8224605210620FFF71DF80020EC
:10365C0010BD6FF00400FBE70000AD0B6D360000F1
:10366C00430970B507D10B4B596821B101250C6882
:10367C00094E854001B970BD8A682A4002D04B685A
:10368C00304698471CB1236821461C46F2E7234676
:10369C00FAE700BFF0070020106F00002DE9FF4192
:1036AC0047683B7B01F01F0545EA43150E4628464B
:1036BC000DF10301144601F085F814F4403F8046E7
:1036CC000BD1284601F03EF93D4B984503D19DF8AE
:1036DC00030001F0BFF800200CE00023194602AAF9
:1036EC002846CDE9023300F03BFF354B984204D01D
:1036FC006FF0150004B0BDE8F081804503D19DF852
:10370C00030001F0A7F8A3034BD540F20633234086
:10371C00B3F5837F19D00CD8062B17D004D8ABB1D6
:10372C00022BE5D1042311E0B3F5807FE0D1012316
:10373C000CE040F20222934227D0B3F5407F26D012
:10374C00B3F5007FD4D1022300E007238DF80430B9
:10375C0084F48033C3F30043E0068DF8053054BF86
:10376C00C4F34013032321038DF8063011D57A6876
:10377C000123B340C2F80835002201A9284600F005
:10378C009DFF0F4B9842A6D0B2E70523DEE703233B
:10379C00DCE7620341BF01237A68B340C2F80C3501
:1037AC00EAE7E3064FF0000354BFC4F340140324CC
:1037BC001A4601A928468DF8044000F0D1FEE0E736
:1037CC000000AD0B70B54B79012B20D18B79032BFD
:1037DC001DD1CD790DB1012D19D10A7912B1022A61
:1037EC0015D10E220B684468B3F5164F266864D0C9
:1037FC002BD8B3F5165F63D014D8B3F5966F61D0A0
:10380C0008D8B3F5967F60D0B3F5167F60D06FF013
:10381C00850051E0B3F5166F5DD0B3F5965FF6D128
:10382C00374B3CE0B3F5E14F58D007D8B3F5615FA7
:10383C0056D0B3F5964FEAD1324B30E047F612240E
:10384C00A342E4D14FF4000329E0B3F5613F49D022
:10385C0013D8B3F5963F48D009D84DF6C024A342EF
:10386C0045D0B3F5614FD2D14FF46B0317E0B3F5EC
:10387C00E13FCCD14FF0EB7311E0B3F5612F39D0B0
:10388C0008D8214CA34238D0B3F5E12FBFD14FF06B
:10389C00E86304E01D4CA342B9D14FF08053046996
:1038AC00C6F8243543681B682A43C3F86C2503C942
:1038BC00231D83E80300002070BD4FF41D03EEE7C9
:1038CC00134BECE74FF49E23E9E74FF4A033E6E704
:1038DC004FF41C33E3E74FF41D23E0E70D4BDEE719
:1038EC000D4BDCE74FF06C73D9E70C4BD7E74FF47B
:1038FC006503D4E74FF07063D1E74FF08063CEE7F8
:10390C0000B0130000A04E0090D0030040420F0006
:10391C000050270000C0750000F03A0000903A01FA
:10392C002DE9F043002287B0804601210220FEF7EA
:10393C00ABFE0220FEF78CFED8F80470D8F81060AD
:10394C003C680021C4F80015C6F80080D7F80C902C
:10395C006A46484602F0FFFF051E25DB009BD9F89E
:10396C0000201979186803F009F8051E1CDB311DBD
:10397C004046FFF727FF0546B0B97B6899072BD562
:10398C0006F1180001F0AAF8274B984210D0274BEB
:10399C0005930223049326482B4604AA4FF4825124
:1039AC006FF00405FEF724F9284607B0BDE8F08354
:1039BC00337EDB0003F1804303F5F83304F10C0292
:1039CC0004F59071C3F81015C3F81425327E012349
:1039DC009340184AC2F804350823C4F800353B7AE2
:1039EC0053B9C4F81031D4F810317369C4F83435B4
:1039FC000123C4F8383523607B689A075CBF4FF409
:103A0C008073C4F804337B68DB0644BF4FF4800337
:103A1C00C4F804333369C4F844350023C4F848357A
:103A2C000123A360E360BFE70000AD0B497A0000FF
:103A3C00FC70000000F00140F8B5044607690D4623
:103A4C0003F0E5F8B0B92E4B1B789BB16426606887
:103A5C0003F03EF800BB012003F0A3F8013EF6D1C1
:103A6C000021212001F0D8FEF0E786F31188BFF386
:103A7C006F8FF5E74FF02003EFF3118683F3128875
:103A8C00BFF36F8F6068314603F022F890B986F36C
:103A9C001188BFF36F8FEDE74FF02003EFF3118622
:103AAC0083F31288BFF36F8F6068314603F010F810
:103ABC000028DAD03B691D70626838691368C3F856
:103ACC0044050120C3F848050020C3F82001D3F8B1
:103ADC002051C3F858015268D3F85801D20608D5C2
:103AEC00626812680820C2F800054FF48002C3F81F
:103AFC00042301229A6081F31188BFF36F8FF8BD04
:103B0C00160D002070B5012383400E4ABFF35B8F66
:103B1C00DC4352E8001F01EA040542E80056002E7F
:103B2C00F7D1BFF35B8F4FF4803282400648C0F868
:103B3C000823BFF35F8FBFF36F8F0B4214BF0120BD
:103B4C00002070BD000800200010014070B40E4928
:103B5C00D1E90034D01AC31844F1000422F07F4696
:103B6C00C1E90034A6F50013B3F5400F09D2074B99
:103B7C001B681A0A1B069C19054B42F10005C3E988
:103B8C00004570BC01F09EBFD00500200408002049
:103B9C00D805002011B3BFF35B8F0123104A83407B
:103BAC0052E800CF4CEA030C42E800C10029F7D1DF
:103BBC00BFF35B8F0B4A4FF480338340C2F804335E
:103BCC00094BBFF35B8F1B68BFF35B8FC340DB07F5
:103BDC0042BF064B4FF40032C3F80021704700BFC0
:103BEC000008002000100140FC07002000E100E06C
:103BFC000D4B1868010A0006BFF35F8F0B4BD3F80F
:103C0C000435181841F10001B3F5801F0AD2084B96
:103C1C00D3E90023904271EB030303D210F18070BF
:103C2C0041F10001704700BF040800200010014062
:103C3C00D80500202DE9F74F16461F460446FFF71E
:103C4C0061FF0090FFF7D4FFB04271EB070351D234
:103C5C003A4B301A67EB0101984271F100016AD2BC
:103C6C00374B03EB0413D3E902239F4208BF964260
:103C7C004ED034494FF4803904F1500509FA04F957
:103C8C00AD00C1F848932046ADB202F06BFF26F0B0
:103C9C007F4B05F1804504F5A8732B4A019305F57C
:103CAC008835DC464FF0030A019B2CF07F4041F82D
:103CBC002300C1F84493D1F804856FF00200A0EB07
:103CCC000800604420F07F40904221D9286860B100
:103CDC00D1F80485A8EB0B0020F07F40B0F5000F65
:103CEC0016D9204602F03EFF174A0AEB080C0AF1DF
:103CFC00010AD9E70123154ABFF35B8FA34052E8B1
:103D0C00000F184342E800010029F8D1BFF35B8F84
:103D1C000B490C98230101EB0412C2E90267C8504D
:103D2C000D9B5360002520460099FFF733FF284672
:103D3C0003B0BDE8F08F6FF01505F4E701008000CB
:103D4C00C005002000100140FDFF7F00FC07002093
:103D5C0073B51B4C1B4BC4F80833C4F848331A4BCF
:103D6C0000254FF0FF304FF0FF31C4F80855C3E980
:103D7C0002014FF48033C4F80433144B02264FF481
:103D8C0000320121C4F804631120C3F880212A46B3
:103D9C00FEF77AFC1120FEF75BFC0D4A0123A360B1
:103DAC00236013600B4B0C4A0093019500232846AB
:103DBC00FFF740FF3046FFF72DFB284602B070BDE1
:103DCC000010014003000F00C005002000E100E0DE
:103DDC0000080020593B0000FFFF7F002DE9F7434E
:103DEC002F4CD4F8043399070BD5D4F8043143B1D4
:103DFC002C4A0023C4F80431D4F80431136801337D
:103E0C001360D4F80433DA032AD5BFF35B8F264B47
:103E1C0053E8002F22F0010143E800100028F7D1ED
:103E2C00BFF35B8FD30702D4D4F84031C3B1002564
:103E3C00C4F84051D4F84031FFF7DAFE4FF02003BC
:103E4C00EFF3118283F31288BFF36F8F174BD3E913
:103E5C000267B042B94106D282F31188BFF36F8F6B
:103E6C0003B0BDE8F0834FF0FF384FF0FF39C3E9E2
:103E7C000289D3E900101D604FF48033C4F8483335
:103E8C00C4F84051D4F8403182F31188BFF36F8FDE
:103E9C000029E5D0009032463B4628468847DFE7AC
:103EAC000010014004080020FC070020C005002081
:103EBC00431C13B522D0012822DD124A124B90422A
:103ECC00D4BF04461C46FFF793FE104B0E49D3E9B2
:103EDC000023801AB0F5000F28BF002404448C4244
:103EEC0028BF0C46A2180A4900914FF0000001901F
:103EFC0043F10003FFF79EFE02B010BD024CE2E757
:103F0C000124E0E7FEFF7F00FFFF7F00D0050020CB
:103F1C00593B000008B5FFF76BFE024B1B68C01A3B
:103F2C0008BD00BFD00500207FB5FDF781FD074B14
:103F3C000593022304930648002304AA4FF48251EC
:103F4C00FDF756FE0020FFF73FF900BF867A000010
:103F5C00BC7000004FF0704393F8E02F062A09D193
:103F6C00D3F8E83FC3F30313033B042B02D8024AF4
:103F7C00D05C704700207047B27A0000024AD2F839
:103F8C000034002BFBD0704700E0014010B502F06C
:103F9C00F9FD40B14FF080538E4AD3F82433C3F36C
:103FAC000423C2F84035FFF7D5FF10B18A4B8B4A7A
:103FBC005A6702F0E7FD48B14FF080534FF0804252
:103FCC00D3F84432C3F34233C2F83C35FFF7C2FF97
:103FDC0030B1834AD2F8FC3023F08073C2F8FC3045
:103FEC0002F0D0FD40B14FF080430022C3F80C2109
:103FFC00C3F81021C3F83825FFF7ACFF20B14FF000
:10400C0080430322C3F8A025FFF7A4FF60B1754BD2
:10401C000522C3F810260122C3F888260022C3F813
:10402C0018263F22C3F814264FF08053D3F83021C2
:10403C00511C09BF4FF07043D3F8343193F8E02F83
:10404C00D3F8E83F08BFC3F30313062A4DD1033B53
:10405C00042B03D8644AD35C002B46D04FF080521B
:10406C00624BD2F80414C3F82015D2F80814C3F824
:10407C002415D2F80C14C3F82815D2F81014C3F870
:10408C002C15D2F81414C3F83015D2F81814C3F840
:10409C003415D2F81C14C3F84015D2F82014C3F808
:1040AC004415D2F82414C3F84815D2F82814C3F8D0
:1040BC004C15D2F82C14C3F85015D2F83014C3F8A0
:1040CC005415D2F83414C3F86015D2F83814C3F868
:1040DC006415D2F83C14C3F86815D2F84014C3F830
:1040EC006C15D2F84424C3F8702502F04BFD48B18E
:1040FC004FF080534FF08042D3F8583203F04F0307
:10410C00C2F8E43E02F03EFD48B14FF08043D3F8D4
:10411C000024D20744BF6FF00102C3F800244FF013
:10412C008053D3F83021062A26D1D3F83431033BFF
:10413C00042B02D82E4AD35C63B12E4AD2F83C37FA
:10414C0043F48063C2F83C374FF08053D3F83031DE
:10415C00062B11D14FF08053D3F83431033B042B91
:10416C0002D8254AD35C3BB14FF01023D3F8082278
:10417C004FF08043C3F858254FF01023D3F800229A
:10418C00002A03DBD3F80432002B22DA1B4901236B
:10419C004FF01020C1F804351524FFF7EFFEC0F8DE
:1041AC000042FFF7EBFEC0F80442FFF7E7FE0023E6
:1041BC00C1F80435FFF7E2FEBFF34F8F0849104BEF
:1041CC00CA6802F4E0621343CB60BFF34F8F00BFA9
:1041DC00FDE710BD0030014000C007400DF0ADBA46
:1041EC0000ED00E000500040AD7A000000C000403F
:1041FC00A87A000000100040A37A000000E0014003
:10420C000400FA0570B501250268BFF35B8FB2FAA2
:10421C0082F3C3F11F03DBB205FA03F422EA0404B0
:10422C0050E8006F964204D140E8004CBCF1000FFE
:10423C00F6D1BFF35B8FE7D101480B7070BD00BFA7
:10424C000000AD0B10B50368CB40DB0714D4012381
:10425C008B400268BFF35B8F43EA020150E8004FCA
:10426C00944204D140E8001CBCF1000FF6D1BFF31E
:10427C005B8FEED1014810BD0148FCE70000AD0B8F
:10428C000400AD0BF7B5044618B1012822D003B0D9
:10429C00F0BD4FF080430222C3F80823C3F8040199
:1042AC00D3F804210122DA60074601238DF8073088
:1042BC0042F210754FF08046CCB1012CE7D1C7B358
:1042CC00D6F80C3403F001033B70D6F80C34DA0347
:1042DC0021D516E04FF080430022C3F80803C3F841
:1042EC000021D3F8002158600DF10707DDE7B7B1C5
:1042FC00D6F8183403F003033B60D6F81834D8030F
:10430C00C5D59DF80700012803D102F04AFC013DF8
:10431C00D2D1012CBBD10C4B00225A71B7E7D6F885
:10432C001834D903B3D5012002F03BFC013DF6D182
:10433C00ADE7D6F80C34DB03EDD5012002F031FCEF
:10434C00013DF6D1E7E700BF08080020044B1A79BD
:10435C0022B9012218609A800248704702487047BF
:10436C00080800200000AD0B0C00AD0B38B510B1E7
:10437C00012843D038BD4FF08042D2F81834D2F81F
:10438C001814C8030BD4D2F81434D9070FD5D2F8AB
:10439C001C349B0708D40223C2F80433EAE703F069
:1043AC000303012B04D013B10020FFF76BFF002394
:1043BC004FF08042C2F818350023C2F80431D2F80D
:1043CC0004310223C2F80433124AD2F8FC0040F044
:1043DC008073C2F8FC30104B1C6844F0010119606A
:1043EC005D685968491BB1F50A5FFAD31C604FF040
:1043FC008043C2F8FC0001229A60BBE74FF0804377
:10440C000022C3F80021D3F80021C3F8040318607C
:10441C00B0E700BF00ED00E0001000E010B54FF079
:10442C008043D3F800216AB10022C3F80021D3F8ED
:10443C0000210122C3F80823114B587910B95A7185
:10444C001B6898474FF08043D3F8042172B10022C7
:10445C00C3F80421D3F80421D3F81824D3F8181482
:10446C00920704D10122C3F818259A6010BD0222CC
:10447C00C3F80823024BBDE810401B680120184705
:10448C0008080020034B083033F81000C0F340102C
:10449C00704700BF2C00002070B500F108030C4CD5
:1044AC0034F81330DA0505460E4607D5C3F343231B
:1044BC0004EBC30254F8333052689847A3682BB10D
:1044CC00E26831462846BDE87040184770BD00BF11
:1044DC002C00002010B4124A083032F81030D905E4
:1044EC001BD5C3F3432123F4F85322F8103002F107
:1044FC000E04002034F8023F13F4807F03D0C3F382
:10450C004323994209D001302028F3D1002342F8EB
:10451C003130044810BCFFF795BE10BC704700BF8B
:10452C002C0000208000002038B50246FFF7AAFFBF
:10453C00094C02F1080540B134F8153007495B0B02
:10454C0003F5A273002041F823001046FFF7C2FFC9
:10455C00002324F8153038BD2C00002000600040EA
:10456C002DE9F34104461D4609B34F4F00F10808ED
:10457C0037F81860B30706D5FFF784FF18B14B481E
:10458C0002B0BDE8F08104F01F039B0003F1A043CF
:10459C000978D3F8000726F0020620F00F0046F049
:1045AC00010640EA810127F81860C3F800179AB198
:1045BC003D4B1778506804F1080633F8161011F0CB
:1045CC00020F0DD00028DAD133F8162022F01C028D
:1045DC0042EA870223F81620002D3BD13448CFE75E
:1045EC0021F02001C904C90C23F816100028EBD0C7
:1045FC00032FC4D8526892F800C02FB92D4A0CF57D
:10460C00A27C42F82C70DFE74FEA8C0202F1804268
:10461C0002F5C04241EA4C31D2F8100520F00300FB
:10462C00C2F81005D2F8100520F4473020F4407081
:10463C00C2F810052002D2F810E500F4F85040EA58
:10464C00074040EA0E0041F0200123F81610C2F892
:10465C001005B9E7D5E900672046FFF73BFF002EB0
:10466C00BCD0114DD5E90023964201D19F4219D0FF
:10467C0011480DF10701FFF7C5FD0D4B98427FF472
:10468C007FAF9DF8072045F8326005EBC203083474
:10469C005F6035F8143043EA422343F4807325F805
:1046AC0014309BE70022EEE72C0000200400AD0B39
:1046BC000000AD0B0060004080000020F8B50446FF
:1046CC0089B33A4E00F1080736F81750AB0704D4FB
:1046DC00FFF7D8FE08B13648F8BD15F01C0F4B7823
:1046EC0024D104F01F0000F5E07E4FF0A04C5B00DD
:1046FC005CF82EC091F802E009782CF4E16C43EAE6
:10470C008E032CF0070C43EA0C0343EA012300F55B
:10471C00E0704FF0A04143F0010345F0030541F870
:10472C00203026F8175022B92248D5E7012BD8D1D2
:10473C00D1E71E4E04F1080736F817008307CAD5D7
:10474C0092F800C06146890020F0200001F1804100
:10475C00C00401F5C041C00C26F817000023C1F8B5
:10476C0010355578002DDFD0D1F81035927823F420
:10477C00981323F4F853C1F81035D1F810E523023F
:10478C0003F4F8532D0443EA0E0305F440351205E7
:10479C002B4302F4801240EA4C30134340F02000CB
:1047AC0026F81700C1F81035BEE700BF2C0000201A
:1047BC000400AD0B0000AD0B014BC3E902017047C7
:1047CC002C00002008B50246FFF75CFE38B1054B03
:1047DC000548083233F812305B0B0B7008BD0348E8
:1047EC00FCE700BF2C0000200000AD0B0400AD0B5B
:1047FC0038B50F4C94F85850BDB94022294604F1F5
:10480C00100001F0A9FF0620FDF722FF094B0A4812
:10481C00C3F87C51D3F87C214FF00042C3F8042339
:10482C00012384F85830636538BD0448FCE700BFA9
:10483C002C000020006000400000AD0B0500AD0B0B
:10484C00034B93F85800003818BF0120704700BF85
:10485C002C00002001460148FFF7F4BC7C0000202E
:10486C0001460148FFF7CEBC7C00002010B5024683
:10487C00FFF708FE02F108041C4B33F81430E0B1CA
:10488C0013F0020419D15B0B9A0002F1804000F581
:10489C00C24002F1804202F5C04204600068D2F8C6
:1048AC00100540F00100C2F8100529B1012202FAEE
:1048BC0003F30F4AC2F8043310BDC3F38203042B75
:1048CC0010D0052B10D04FF0A043D3F8101502F0E8
:1048DC001F03D94001F001010231BDE81040104620
:1048EC0002F070B90321F8E70221F6E72C00002052
:1048FC000060004008B50246FFF7C4FDC0B102F1EC
:10490C0008010E4B33F81130990711D45B0B0122BF
:10491C009A409B000A4903F1804303F5C043C1F858
:10492C000823D3F8102522F00302C3F8102508BD84
:10493C00BDE808400021104602F044B92C000020CC
:10494C000060004010B50D4B00F10802044633F82E
:10495C001230DB070FD5FFF7CDFF204604F01F0404
:10496C00FFF7E2FD04F5E0744FF0A043022243F898
:10497C002420034810BD0348FCE700BF2C00002096
:10498C000000AD0B0400AD0B2DE9F74F4F4B504819
:10499C005049002501222C461E6836B1D0F804631C
:1049AC0016421EBF1C601E68154304338B424FEA2F
:1049BC004202F1D1464BD3F87C31BBB14FF0A0464B
:1049CC00D6F820350193C6F8203501AF4FF0010819
:1049DC00019C8CB93E4BC3F87C41D3F87C31D6F8A2
:1049EC0020350193C6F82035002BEED10124002D83
:1049FC0053D103B0BDE8F08F94FAA4F4B4FA84F464
:104A0C00354A04F10803E00832F813103B5C04F05B
:104A1C00070208FA02F223EA02033B54A30003F153
:104A2C00A049C1F3820AD9F80027CB06D346C2F3BA
:104A3C00014218D5594620465FFA82FAFFF72CFD41
:104A4C00D9F80037C3F301439A4507D1002120461A
:104A5C0002F0B8F85146204602F0B4F808FA04F413
:104A6C00C6F82045B4E7022A0CD10321204602F0F7
:104A7C00A9F80AF00503012BF0D159462046FFF79F
:104A8C000BFDEBE70221204602F09CF8BAF1030F74
:104A9C00F3D0032AE2D18A45EEE795FAA5F3B3FAEF
:104AAC0083F304FA03F29B0003F1804303F5C04344
:104ABC0025EA0205D3F81005D3F81015C0F304202D
:104ACC00C1F30141FFF7E8FC91E700BF0061004032
:104ADC0000600040206100402C000020014601488D
:104AEC00FFF790BB8800002010B5114C114A1249F9
:104AFC00032323616361114BA261E3614FF4806373
:104B0C0023620023A3626362E36222660C4A62663C
:104B1C00E01D1022A2662367E366636701F0F7FDD0
:104B2C000849204601F0F3FD2023A37110BD00BFFE
:104B3C0010080020D77A0000E07A00001609002047
:104B4C0006090020E47A00002DE9F84F214F4FF0C0
:104B5C00180B14460BFB00720646936A556AAB425F
:104B6C00884631D8D2F820A0AAEB050909F1FF320A
:104B7C00944211D8182306FB03333B442246586851
:104B8C004146284401F0DDFD2C44182303FB067339
:104B9C0001205C62BDE8F88F13449C4218D800FBDE
:104BAC000BBBBB444A46DBF804002C44284401F000
:104BBC00C8FDB4EB0A04E8D0DBF80400224608EB8D
:104BCC00090101F0BEFDE0E7013B5B1BA342D1D222
:104BDC000020DFE710080020034B182202FB0033F3
:104BEC009A6A586A801A70471008002003484FF0E0
:104BFC00FF324FF0FF3300F04FBA00BFD800002057
:104C0C00014800F0C3BA00BFD80000202DE9F047DE
:104C1C0086B0054600AF0E464FF02003EFF3118827
:104C2C0083F31288BFF36F8F00F010FE042D96BF34
:104C3C002C4B2D4B53F82530E9468AB004466A4676
:104C4C002A49D36140F2013393844FF0000A284B78
:104C5C00C2F820A0C2E9051542F8103F254853467A
:104C6C004FF43151FCF7C4FFCD467EB1F369C3F369
:104C7C0008035BB1204B7B6102233B611D4853460B
:104C8C0007F110024FF48251FCF7B2FF2CB1204611
:104C9C0001F0C6FF08B1037803B91848E9468AB099
:104CAC006A46174BD061C2E9053440F201331384D4
:104CBC00144B42F8103F00230E484FF41151FCF7EF
:104CCC0097FF3146CD462846FFF72EF988F3118819
:104CDC00BFF36F8F2046FEF759F91837BD46BDE874
:104CEC00F08700BFE8720000EB7A0000017B000047
:104CFC0005000001E4700000297B0000F97A000037
:104D0C004A7B000004000001104B70B553F82040A2
:104D1C00013053F82060A64200D870BDD4E90035AC
:104D2C008DB12846984738B10028B8BF4042EB688F
:104D3C00FF28A8BFFF201870EA68537843F00103DE
:104D4C0053700834E7E79847FBE700BFFC7200009C
:104D5C0008B50A4B012203201A70FFF7D5FF00F0AB
:104D6C00D7FF0420FFF7D0FF00F01EF9FBF754FB30
:104D7C00034A137B23F00103137308BD160D0020A7
:104D8C006006002008B50348034A0021121A01F0FE
:104D9C003AFF08BD00010020180D002070B500235B
:104DAC0086B00122CDE90423134E144D01930F223A
:104DBC00CDE902321249142303FB005506EBC01651
:104DCC0004464FF4C07000FB04110E4B00954FF4D9
:104DDC00A072304600F08AF8737B0B4AEE6023F029
:104DEC00040373734FF4046304FB033313442C74F4
:104DFC006B6006B070BD00BFE0050020B808002055
:104E0C00C01800206D5000008010002080B50020DC
:104E1C00A6B0FFF779FF2E4B83F308882D4D2E4E4D
:104E2C006B692E4F43F400736B610024E02385F80B
:104E3C002230EC772C766C76AC7685F820406B6A59
:104E4C0043F4E0236B6285F82340FEF713F8FDF77B
:104E5C0079FB4FF0FF33AB62EB62FEF767F9FEF7BD
:104E6C00ABF8FCF751FD40F20113ADF8243006AB62
:104E7C00B360CDE91F44229401F0B9FE0120FFF785
:104E8C0043FF0220164DFFF73FFF00F03BFC154B94
:104E9C00B5610593012314490094CDE903434FF404
:104EAC0080623B46CDE90144284600F01FF86A7B3E
:104EBC00064622F0040228466A7301F008FF2046D9
:104ECC00FFF76CFF3A4631462846FDF79BFC00BFC6
:104EDC00C018002000ED00E0B80800205D4D000077
:104EEC0060060020AC7B0000401A00202DE9FF4139
:104EFC000E9E0673042646730D9E867300F15805AC
:104F0C000F46D61DC0E916550C9A002526F007064B
:104F1C004037C0E90655C0E919768560C573C5668A
:104F2C0006F1400802920B9A019288440A9A009268
:104F3C0042460446FDF734FC044B65659B6803B19F
:104F4C001B6F2367404604B0BDE8F081B808002011
:104F5C00F0B587B000250595109D04950F9D039520
:104F6C000E9D0295DDE912760D9D01950C9D009527
:104F7C000446FFF7BBFFB6F1FF3F08BFB7F1FF3F99
:104F8C0005D056EA070305D1204600F03BFB20462E
:104F9C0007B0F0BD03493A46334604F1180000F05F
:104FAC001BFDF4E7636D00002DE9F043294C2A4DFD
:104FBC0087B02646AE4204F12C040FD300F072FBEE
:104FCC00244CDFF898904FF4004640F2E737AC429F
:104FDC0020D307B0BDE8F04300F078BB54F8043C94
:104FEC00059354F80C3C049354F8103C039354F878
:104FFC00143C029354F8183C019354F81C3C009355
:10500C0054E9092354E90B01FFF770FF54F82C3CC9
:10501C005E65CEE7636A5A1C0DD023EAE373002168
:10502C003846C3FB060151EAC333D4F8008004D1DF
:10503C00404600F0E7FA2C34C9E74FF47A720023AB
:10504C00FBF746F802460B4608F11800494600F0FB
:10505C00C3FCF0E77870000078700000636D00000E
:10506C0008B50B4C0B4D4FF02002EFF3118382F37C
:10507C001288BFF36F8F01F0D1FE2B78606113B9EA
:10508C00FDF766FAEFE7FDF78FF90028EBD1F7E7AC
:10509C00B8080020160D00202DE9F34104461746F0
:1050AC001E464FF02003EFF3118883F31288BFF3F1
:1050BC006F8FC368334A7BB180689168884219D07E
:1050CC0057EA060318D188F31188BFF36F8F6FF07E
:1050DC000F0002B0BDE8F081916891F90E102161CA
:1050EC000133E3609368A36088F31188BFF36F8F7B
:1050FC000020EEE72169F2E791F90E1090F90E30DD
:10510C009942A8BF19466FF07E029142B8BF114672
:10511C008B422EDD01F08DFD0546CDE900761A4857
:10512C002246414600F0F8F90028E1D04FF0200368
:10513C00EFF3118683F31288BFF36F8FA068D0B1A1
:10514C00236821699C420AD04BB193F90E309942E5
:10515C00A8BF19466FF07E039942B8BF194601F0FB
:10516C0068FD40B10848314600F03AFA6FF00A0089
:10517C00AFE70025D1E7002DF4D186F31188BFF3FA
:10518C006F8FF3E7B8080020170D002038B583683F
:10519C0004466BB3194A926893422CD1C368012B15
:1051AC0003D9013BC360002038BD4FF02003EFF35F
:1051BC00118583F31288BFF36F8F0169806801F04A
:1051CC0038FD204601F0E2FDA06058B190F90E20A8
:1051DC0022610022826701F07AFD0948294600F01D
:1051EC00FFF9E0E7E06085F31188BFF36F8FDAE732
:1051FC006FF01500D8E74FF0FF30D5E7B808002066
:10520C00170D002038B504464FF02003EFF311853D
:10521C0083F31288BFF36F8F01F0B8FD48B1002201
:10522C00826701F054FD29460548BDE8384000F07E
:10523C00D7B9D4E902329A4218BF0133A360F2E71E
:10524C00170D002013B54FF02004EFF3118184F3F8
:10525C001288BFF36F8F846844B1013C846081F382
:10526C001188BFF36F8F002002B010BD52EA030407
:10527C0006D181F31188BFF36F8F6FF00F00F3E746
:10528C00CDE900230246024800F046F9ECE700BFE6
:10529C00170D0020C3897F2B12D80A4B1B6863B1F2
:1052AC00094B90F90E201B689A4209DB437BDB0605
:1052BC0006D1064BC31A18BF012303F00100704737
:1052CC000023FAE7E4080020E0080020E0050020B5
:1052DC00044BC01A044BC0105843044B01221A54FF
:1052EC00704700BFE0060020ABAAAAAA170D002049
:1052FC0070B50E4B0E4C1E7C06EB460304EBC30440
:10530C000546204601F074FD0A4B002228469A55AA
:10531C00FFF7C0FF48B1084B08491A68013A20460C
:10532C00D317BDE8704000F057BB70BDB808002023
:10533C00E0060020170D0020E4080020DD520000DC
:10534C0038B50D4D2B4653F81C4F9C4200D004B978
:10535C00EC68AB6838B95A7BD20604D1A26912B991
:10536C00DA897F2A05D89C4202D02046FFF7C0FF7D
:10537C002346AB6138BD00BFB808002070B590F96A
:10538C000D20437B002A014604DA03F07F034373AC
:10539C0001F063FC4B7B154A63F07F0310464B73A3
:1053AC0050F81C3F146A834208BF002323B9C1E99B
:1053BC000004216011620CE091F90E5093F90E601B
:1053CC00B5420ED0AE420CDD5868C1E90030016028
:1053DC0059609068431A5842BDE870405841FFF735
:1053EC00AFBF9C42E3D01B68E0E700BFB8080020C9
:1053FC0070B490F90D30427B002B29DBD30627D1FA
:10540C0083692BBB134962F07F0242730A4652F840
:10541C001C4F944218BF23460C6A23B9C0E90024E0
:10542C00206008620CE090F90E5093F90E60B542C2
:10543C000AD0AE4208DD5A68C0E9003210605860EC
:10544C0070BC0020FFF77CBFA342E7D01B68E4E7E9
:10545C0070BC7047B808002008B590F90D20437B4C
:10546C00002A014604DA03F07F03437301F0F5FBD5
:10547C00044B9868431A58425841BDE80840FFF75E
:10548C005FBF00BFB808002070B515461C46064625
:10549C0001F0F5FBB4F1FF3F08BFB5F1FF3F08D0B9
:1054AC002A46234606F118000249BDE8704000F078
:1054BC0093BA70BD636D000038B54FF02003EFF365
:1054CC00118583F31288BFF36F8F104B104A9C68C1
:1054DC001068A04206D1FFF70BFF85F31188BFF3CC
:1054EC006F8F38BD00211B7C11600A4AD35C002BE6
:1054FC00F3D02046FFF7CEFE0028EED0637BDB0610
:10550C0002D12046FFF73AFF2046E4E7B808002016
:10551C00DC080020170D002070B50C480C4D866877
:10552C002E600C461146DDE904234FF02006EFF304
:10553C00118586F31288BFF36F8F8068FFF7A4FF85
:10554C002046BDE87040FDF7D7B800BFB808002072
:10555C00DC080020F8B504464FF02003EFF3118669
:10556C0083F31288BFF36F8F437BDA0649B219D1EC
:10557C008569BDB903F07F03437301F06EFB437B78
:10558C00164A817363F07F034373134653F81C0F61
:10559C00984218BF0546106A5DB9C4E90030046032
:1055AC00146211E0A173002086F31188BFF36F8F92
:1055BC00F8BD95F90E70B9420BD08F4209DD6B68BE
:1055CC00C4E900531C606C600120FFF7B9FE012098
:1055DC00EAE7A842E1D02D68DEE700BFB80800205A
:1055EC0049B9EFF3058030B9054B9A699B689A422B
:1055FC0001D0FDF781B881F31188BFF36F8F70472D
:10560C00B808002010B54FF02002EFF3118482F39C
:10561C001288BFF36F8F427B510704D484F3118837
:10562C00BFF36F8F10BD22F004024273FFF7E0FE50
:10563C0021460248BDE81040FFF7D2BF180D0020EC
:10564C0070B50446183001F0D3FB4FF02003EFF394
:10565C00118683F31288BFF36F8F94F90D20637B4F
:10566C00002A05DA03F07F036373204601F0F5FA94
:10567C000B4D637BA86843F010036373031B584204
:10568C005841FFF75DFE86F31188BFF36F8FAB684F
:10569C00A34203D1BDE8704001F0A0BB70BD00BFB8
:1056AC00B80800204FF02003EFF3118183F3128828
:1056BC00BFF36F8F044B9A68D37B013BD37381F399
:1056CC001188BFF36F8F7047B808002010B54FF0EA
:1056DC002003EFF3118483F31288BFF36F8F084B11
:1056EC009A68D37B0133D3730020FFF729FE84F330
:1056FC001188BFF36F8FBDE8104001F06FBB00BF86
:10570C00B8080020024B03F11C02C3E907227047C2
:10571C00B8080020F8B54FF02003EFF3118583F3A0
:10572C001288BFF36F8F19498868437B03F07F039E
:10573C00437301F092FA8B685A7B084662F07F0241
:10574C005A7350F81C2F0C6A824208BF002222B9EF
:10575C00C3E9000423600B620CE093F90E6092F92C
:10576C000E70BE420ED0B7420CDD5168C3E9002169
:10577C000B6053600120FFF7E3FD2846BDE8F840BD
:10578C00FCF7BABFA242E3D01268E0E7B8080020E9
:10579C0050EA01032DE9F04105460E4603D1FFF70F
:1057AC00B9FF00202CE0831C71F1FF332ADB01F0E0
:1057BC0045FB2C184FF02003EFF3118883F312886C
:1057CC00BFF36F8F114F124BB8681860FFF744FE90
:1057DC00B86810492A463346183000F0FDF8BA680C
:1057EC00537B43F0100353734046FCF785FF01F0E5
:1057FC0025FB201A63EB0303012873F10003D0DBB4
:10580C00BDE8F0816FF00104241AD3E7B80800203A
:10581C00DC080020636D0000B1F1FF3F08BFB0F160
:10582C00FF3F08B506D1084B9868FFF709FF4FF00A
:10583C00FF3008BDFFF7ACFF4FF47A7380FB030316
:10584C00C00B40EA4340F4E7B8080020014B9868CD
:10585C00704700BFB80800202DE9F04104464FF016
:10586C002003EFF3118683F31288BFF36F8F037B52
:10587C00D9070BD586F31188BFF36F8F404080F3A7
:10588C0011884FF0040002DFBDE8F081437B1A075A
:10589C0004D586F31188BFF36F8FF5E723F0200250
:1058AC0042F00801D20920D14173A36813B12046FC
:1058BC0001F0DBF904F1180001F09AFA04F1580731
:1058CC004FF00008A56DBD4200D0B5B90120FFF71F
:1058DC0037FD104B9B68A342DBD1EFF30583002B04
:1058EC00D7D13046FCF708FFD3E703F05F0343F052
:1058FC000803437301F0B1F9D7E7284601F0B5F975
:10590C0005F1180001F074FAC5F878802846FFF705
:10591C006FFDD7E7B808002008B50648064A0749C6
:10592C00121A01F072F9BDE80840054A054906480B
:10593C0001F06BB900000020FC000020E47B0000AB
:10594C0000000000E47B000000000020034B1B68FB
:10595C000BB9FEF7DFBA0020704700BFE808002043
:10596C0010B50E4B1C689C4204D1FFF7EFFF6FF093
:10597C00004010BDFFF7EAFF002CF8D0D4E9043248
:10598C001B1A62EBE072B3F1004F72F10001EEDA18
:10599C00002AACBF18460020EBE700BF8C000020AB
:1059AC0030B570B10B4B5B6898420AD0036843B1B9
:1059BC00D3E90421D0E90445121941EB0501C3E9EF
:1059CC000421D0E9003213605A600023C0E900338F
:1059DC0030BD00BF8C000020B3F1FF3F08BFB2F117
:1059EC00FF3FF8B504461D4616465CD081604FF06B
:1059FC002003EFF3118783F31288BFF36F8F01320B
:105A0C0075F1FF3324DA2D49D1E900206FF0010341
:105A1C009B1A4FF0FF3262EB00009E1B60EB0500FF
:105A2C00012E70F1000301DA01260020C4E90460A4
:105A3C00234ED6F800C07568B44508BF4FF0000C73
:105A4C00BCF1000F0DD1C4E900652C6074601CE042
:105A5C00FFF77CFF013645F10005361845EBE07089
:105A6C00E4E7DCE90420D4E90431934271EB000E45
:105A7C001ADAD21ADCF8043060EB0100CCE904200D
:105A8C00C4E900C31C60CCF804403368B34206D0B0
:105A9C009C4204D1FFF764FF0021FEF709FA87F35B
:105AAC001188BFF36F8FF8BD9B1A61EB0001AC45F9
:105ABC00C4E90431C7D0DCF800C0C1E7F806002007
:105ACC008C0000202DE9F84F4FF02003EFF3118CE0
